:100000000C94A3040C94CB040C94CB040C94CB045C
:100010000C94CB040C94CB040C94CB040C94CB0424
:100020000C94CB040C94CB040C94301A0C94CB0499
:100030000C94CB040C94CB040C94981A0C94CB0421
:100040000C948E190C94CB040C94FE190C94D819B2
:100050000C94CB040C94CB040C94CB040C94CB04E4
:100060000C94CB040C94CB0441546D65676133321E
:1000700055320041546D6567613136553200415447
:100080006D6567613855320041546D656761333283
:1000900038500041546D6567613332380041546D0A
:1000A00065676131363850410041546D6567613193
:1000B0003638410041546D65676138385041004120
:1000C000546D6567613838410041546D656761342E
:1000D0003850410041546D656761343841004154E6
:1000E00074696E793136333400415474696E7938ED
:1000F0003800415474696E79343800415474696E23
:100100007938323800415474696E7931363700419C
:100110005474696E79383700415474696E79383691
:100120003100415474696E79343631004154746938
:100130006E7932363100415474696E793835004138
:100140005474696E79343500415474696E7932356E
:1001500000415474696E7938343100415474696EC9
:100160007934343100415474696E79383400415423
:1001700074696E79343400415474696E7932340094
:10018000415474696E793433550043616E6E6F74F7
:1001900020636F6E6E6563743A204C6F636B2062F0
:1001A00069747320617265207365740043616E6EBB
:1001B0006F7420636F6E6E6563743A20556E73754D
:1001C00070706F72746564204D435520747970654A
:1001D0000043616E6E6F7420636F6E6E6563743A78
:1001E00020436865636B20776972696E6700646598
:1001F00062756757495245206973206E6F77206595
:100200006E61626C65642C206270733A2000506CE1
:100210006561736520706F7765722D6379636C65B6
:1002200020746865207461726765742073797374D3
:10023000656D006465627567574952452069732092
:100240006E6F7720656E61626C65642C20627073DE
:100250003A2000546172676574206F66666C696E3F
:10026000653A2043616E6E6F742072657365740029
:10027000436C6F636B20736F7572636520697320C5
:100280006E6F77207468652045585465726E616C96
:10029000206F7363696C6C61746F7200436C6F6381
:1002A0006B20736F75726365206973206E6F7720A2
:1002B000746865205243206F7363696C6C61746F5E
:1002C0007200434B44495638206675736520697344
:1002D000206E6F7720756E70726F6772616D6D65DD
:1002E0006400434B44495638206675736520697332
:1002F000206E6F772070726F6772616D6D6564003C
:10030000467573652070726F6772616D6D696E6797
:10031000206661696C656400556E737570706F72EC
:10032000746564204D435520747970650043616E97
:100330006E6F7420636F6E6E6563743A20436865F8
:10034000636B20776972696E670054585832303A8F
:1003500058583B32313A585858583B32323A58582C
:100360005858585858583B7468726561643A313B24
:10037000002A2A2A466174616C20696E7465726E67
:10038000616C206465627567676572206572726F63
:10039000723A2000496C6C6567616C20696E7374F9
:1003A00072756374696F6E00436F6E6E6563746916
:1003B0006F6E20746F20746172676574206C6F7348
:1003C0007400415474696E7934333133004154748C
:1003D000696E793233313300415474696E79313347
:1003E00000079040006000400000042E0020000044
:1003F0000000001C0000000A000800D8030C920056
:100400000160004000001027004000000000001CB8
:100410000000002200200080010A9180006000801E
:100420000000081F002000000000001C0000002445
:10043000002000CD030D9200016000000100102794
:10044000004000000000001C00000024002000C24A
:10045000030B91800060008000000827002000004E
:100460000000001C001F00220020007701079200FE
:100470000160000001001027004000000000001C87
:10048000001F00220020006E010C9300026000009B
:1004900002002027004000000000001C001F002276
:1004A00000200065011592000100010001001027E5
:1004B000001000010000001C001F00220020005B53
:1004C0000115930002000100020020270010000126
:1004D0000000001C001F0022002000510108918034
:1004E0000060008000000822002000000000001CC6
:1004F000001F002200200048010692000160000059
:1005000001001022004000000000001C001F00221B
:100510000020003F010B9300026000000200202237
:10052000004000000000001C001F002200200036D8
:10053000010C918000600080000008200020000075
:100540000000001C001F00220020002C0108920067
:100550000160000001001020004000000000001CAD
:10056000001F002200200022010D93000260000005
:1005700002002020004000000000001C001F00229C
:1005800000200018018793000200010002002031C2
:10059000008000000000001F002200220020000F49
:1005A0000187940002000100020040310080000039
:1005B0000000001F0022002200200005011493000B
:1005C000020001000100203100400000007F0F1FE9
:1005D0000022003E002C00FB0009920001000140B7
:1005E00000001031004000000000001F0022002E1B
:1005F000002C00F2001193000200014000002031A5
:10060000004000000000001F0022002E002C00E926
:1006100000129400040001000100402E002000019F
:100620000000001C00000022002000DE00059200F7
:100630000200010001001031004000000000001F16
:1006400000220022002000D4000A920002000100D3
:1006500001001031004000000000001F00220022B5
:10066000002000C9000A93000400010002002031AC
:100670000040000000800F1F00220022002000BF69
:10068000000F930004000100020020310040000030
:1006900000800F1F00220022002000B400069400FA
:1006A00004000100020040310080000000801F1F94
:1006B00000220022002000A9000B94000400010089
:1006C000020040310080000000801F1F0022002235
:1006D0000020009D001495000800010004008031F6
:1006E0000080000000003F1F002200220020009335
:1006F000000F950008000100040080310080000018
:1007000000003F1F00220022002000880089930083
:100710000200010002002031004000000000001F24
:10072000002200220020007E0089940002000100C7
:1007300002004031008000000000001F0022002263
:1007400000200073008A950004000100040080313D
:10075000008000000000001F00220022002000682E
:1007600000000000000000240027002A0000000014
:1007700000250028002B000000000023002600298F
:10078000000404040404040404020202020202033A
:100790000303030303010204081020408001020444
:1007A00008102001020408102000000008000201C7
:1007B000000003040700000000000000004E756DFB
:1007C000626572206F6620666C617368207772695B
:1007D0007465206F7065726174696F6E733A200082
:1007E000646562756757495245206973206E6F775B
:1007F0002064697361626C656400436F6E6E65634B
:1008000074656420746F200064656275675749528F
:100810004520636F756C64204E4F542062652064E0
:10082000697361626C65640037323635373336354B
:1008300037343030003334363237303030003733ED
:100840003737363237303030003638373736323790
:100850003030300036353738373436663733363354
:100860003030003732363336663733363330300087
:100870003633366233313730373236353733363305
:100880003631366336353732303000363336623300
:1008900038373037323635373336333631366336DC
:1008A000353732303000373236313664373537330A
:1008B00036313637363530300036363663363137F6
:1008C00033363836333666373536653734303000B0
:1008D0003634373736333666366536653635363331
:1008E00037343030003634373736663636363630C1
:1008F00030007173546872656164496E666F00718F
:1009000066546872656164496E666F007143005099
:1009100061636B657453697A653D46463B737762E4
:100920007265616B2B0071537570706F72746564C2
:10093000007152636D642C007653746F707065643F
:100940000000D51A522411241FBECFEFD8E0DEBF1D
:10095000CDBF11E0A0E0B1E0E2E3FAE402C005900F
:100960000D92A637B107D9F727E0A6E7B1E001C09D
:100970001D92A432B207E1F714E0C2EAD4E004C049
:100980002197FE010E94E124C13AD107C9F70E94D4
:100990001E1B0C940C250C940000AF92BF92CF92BA
:1009A000DF92EF92FF920F931F93CF93DF936C012F
:1009B0007B018B01040F151FEB015E01AE18BF0810
:1009C000C017D10759F06991D601ED91FC910190C2
:1009D000F081E02DC6010995892B79F7C501DF91DA
:1009E000CF911F910F91FF90EF90DF90CF90BF902C
:1009F000AF900895FC01538D448D252F30E0842F56
:100A000090E0821B930B541710F0CF960895019736
:100A10000895FC01918D828D981761F0A28DAE0F23
:100A2000BF2FB11D5D968C91928D9F5F9F73928FAA
:100A300090E008958FEF9FEF0895FC01918D828DD6
:100A4000981731F0828DE80FF11D858D90E00895A3
:100A50008FEF9FEF0895FC01918D228D892F90E0FB
:100A6000805C9F4F821B91098F73992708958AE7B5
:100A700096E00E942B0521E0892B09F420E0822FCB
:100A8000089580E090E0892B29F00E9437058111BC
:100A90000C9400000895FC01A48DA80FB92FB11D7E
:100AA000A35ABF4F2C91848D90E001968F739927A4
:100AB000848FA689B7892C93A089B1898C91837082
:100AC00080648C93938D848D981306C00288F3897B
:100AD000E02D80818F7D80830895EF92FF920F93A8
:100AE0001F93CF93DF93EC0181E0888F9B8D8C8DDA
:100AF00098131AC0E889F989808185FF15C09FB7CE
:100B0000F894EE89FF896083E889F9898081837090
:100B1000806480839FBF81E090E0DF91CF911F913F
:100B20000F91FF90EF900895F62E0B8D10E00F5F60
:100B30001F4F0F731127E02E8C8D8E110CC00FB636
:100B400007FCFACFE889F989808185FFF5CFCE01CE
:100B50000E944B05F1CFEB8DEC0FFD2FF11DE35AF9
:100B6000FF4FF0829FB7F8940B8FEA89FB89808151
:100B70008062CFCFCF93DF93EC01888D8823B9F0CB
:100B8000AA89BB89E889F9898C9185FD03C0808198
:100B900086FD0DC00FB607FCF7CF8C9185FFF2CF15
:100BA000808185FFEDCFCE010E944B05E9CFDF911B
:100BB000CF910895833081F028F4813099F082300C
:100BC000A9F008958730A9F08830C9F08430B1F4D5
:100BD000809180008F7D03C0809180008F7780930B
:100BE0008000089584B58F7784BD089584B58F7D86
:100BF000FBCF8091B0008F778093B00008958091F3
:100C0000B0008F7DF9CFCF93DF93282F30E0F9012B
:100C1000E755F84F8491F901EB56F84FD491F9015B
:100C2000EF57F84FC491CC23A1F081110E94DA054F
:100C3000EC2FF0E0EE0FFF1FE958F84FA591B491AB
:100C4000EC91ED2381E090E009F480E0DF91CF9119
:100C5000089580E090E0FACF1F93CF93DF93282F81
:100C600030E0F901E755F84F8491F901EB56F84F60
:100C7000D491F901EF57F84FC491CC23A9F0162F66
:100C800081110E94DA05EC2FF0E0EE0FFF1FE3590F
:100C9000F84FA591B4918FB7F894EC91111108C059
:100CA000D095DE23DC938FBFDF91CF911F91089504
:100CB000DE2BF8CFCF93DF9390E0FC01EB56F84F9B
:100CC00024918F57984FFC0184918823C9F090E0BC
:100CD000880F991FFC01ED59F84FA591B491FC01C3
:100CE000E359F84FC591D49161110DC09FB7F894A5
:100CF0008C91209582238C938881282328839FBF01
:100D0000DF91CF910895623051F49FB7F8943C91F0
:100D1000822F809583238C93E8812E2BEFCF8FB782
:100D2000F894EC912E2B2C938FBFEACF8091BC01CD
:100D300080938100B59AEFE6F0E080818062808345
:100D400008954F925F926F927F928F929F92AF928F
:100D5000BF92CF92DF92EF92FF929B01AC0160E0D5
:100D600070E18EE59FE50E94C22469017A0181E06D
:100D70008093BD0180917906809378061092BE0120
:100D800081E4C8168DE0D80683E0E806F10408F493
:100D90004DC023E0F694E794D794C7942A95D1F7F1
:100DA00082E0982F90689093BC01982F906C90935C
:100DB000BB0188608093BA012601370182E3480EA7
:100DC000511C611C711C84E6882E912CA12CB12C25
:100DD000C301B201A50194010E94A0243093B9017E
:100DE0002093B801F694E794D794C794C701B6014D
:100DF000640D751D861D971DA50194010E94A024F8
:100E00003093B7012093B6011092800010928200B7
:100E1000FF90EF90DF90CF90BF90AF909F908F901A
:100E20007F906F905F904F900C94960681E0B9CFC1
:100E30009091790680917806981741F0E0917906B3
:100E4000F0E0EA58FE4F808190E008958FEF9FEF29
:100E500008950895809179062091780690E0805C4D
:100E60009F4F821B91098F7399270895909179065E
:100E700080917806981789F0E0917906F0E0EA58B9
:100E8000FE4F80812091790630E02F5F3F4F2F7316
:100E900033272093790690E008958FEF9FEF089510
:100EA0008A3010F0895A0895805D089541EE53E02C
:100EB00030E020E0FA01659174916115710509F443
:100EC0007BC0445E5F4FF9013E966817790709F0D1
:100ED00063C0A0E5B4E0220F331F90E080E02F5103
:100EE0003C4FF901E80FF91F459154914D935D93E3
:100EF00002968C319105A9F7809162049091630468
:100F00009C012E5F3F4F309375042093740401962B
:100F1000909373048093720480915C0490915D04BB
:100F200020915E0430915F04232B21F0880F991FDC
:100F3000880F991F909377048093760480E490E063
:100F400090936D0480936C048FE390E09093710410
:100F50008093700480E890E090936F0480936E0417
:100F600080916A0490916B0423E0883D9207B1F46C
:100F700080E190E090936F0480936E0488E090E0AD
:100F800090936D0480936C048FE090E090937104D3
:100F90008093700481E008959F018CCF23E08D3C05
:100FA000920719F0825C9340A9F780E890E0909353
:100FB0006D0480936C04EECF80E0089588E197E0A3
:100FC0000E942A07892B29F088E197E00E943607C2
:100FD000F5CF0895292F33272439310508F047C06C
:100FE0002239310508F054C024303105B0F42230E4
:100FF000310508F046C02115310509F444C0287FA9
:101000003327283F310509F041C09C012F70332759
:1010100091E0283031054CF539C02039310578F39D
:101020009C01277033272330310559F19C012F7023
:101030003327265031092330310518F18F7E9C016A
:10104000215E314922303105E0F0853E21E99207E9
:10105000C1F09C01295C31492230310590F0245EB9
:101060003F4F91E02230310588F4892F08952639C9
:10107000310520F1A9014C5951094430510508F0BE
:10108000BECF91E0F2CF91E08111EFCF90E0EDCFB4
:101090009C012F703327A901435051094630510557
:1010A00080F32B30310569F38F7E9C01215E33493B
:1010B0002230310530F3285E3F4FCECF893044E9EE
:1010C000940721F3AC014850554942305105F0F2E4
:1010D000883165E99607D1F2AC014F794838554916
:1010E000A9F2AC014F7055274430510551F2BC01B3
:1010F0006D7077276930710521F24830510519F478
:10110000253909F4BECF209158043091590421307B
:10111000304208F0BBCF9C012C703E7F91E02C3018
:10112000344909F0B3CFA1CF8AE796E00E942B059E
:10113000892BD1F38AE796E00E9409050895682F6C
:101140008AE796E00C946D05EF92FF921F93CF9380
:10115000DF93F82E192F84E20E949F08CF2DD12F04
:1011600010E088E7E82E85E0F82E1C161D0654F4E2
:10117000F70180810E949F08F70181917F01180F7C
:101180002197F3CF83E20E949F08812F82958F7071
:101190000E9450070E949F08812F8F700E94500765
:1011A000DF91CF911F91FF90EF900C949F084F9289
:1011B0005F926F927F928F929F92AF92BF92CF92E7
:1011C000DF92EF92FF920F931F93CF93DF93CDB7F0
:1011D000DEB72A970FB6F894DEBF0FBECDBF7C01F5
:1011E0004A015B018FE480937805C12CDC2CDD0C77
:1011F00011E01D0DF701EC0DF11D0491002309F420
:10120000B7C0C394802F82958F700E945007E12F42
:10121000F0E0E858FA4F8083802F8F700E945007CB
:10122000D394D394ED2DF0E0E858FA4F8083DECFCD
:10123000CE0101966C01F12CE12C9AE0492E512C43
:10124000612C712C9FEFE91AF90AC501B401A301C1
:1012500092010E94C224605DF60161936F01490111
:101260005A0181149104A104B10461F78EC0D02EFB
:10127000C12EDA94AC2CB12CEE24E394EC0CF12CBE
:10128000C394C394FFEFDF1609F444C0E1E0F0E03B
:10129000EC0FFD1FED0DF11D9080892D82958F7053
:1012A0000E945007F501E858FA4F8083892D8F700E
:1012B0000E945007F701E858FA4F8083DACF8EEF8B
:1012C00088168FEF9806A806B80631F5E0906A04F4
:1012D000F0906B04F70104910023F1F0FFEFEF1A97
:1012E000FF0A82E0D82ED10E802F82958F700E9447
:1012F0005007E12FF0E0E858FA4F8083802F8F707D
:101300000E9450071F5FE12FF0E0E858FA4F8083FA
:101310001D2DE0CF000F100FE12FF0E0E858FA4F3D
:1013200080E38083E1E0E10FF0E0E858FA4F81E4E8
:1013300080831E5F812F90E0FC01E858FA4F1082F5
:101340002A960FB6F894DEBF0FBECDBFDF91CF91C6
:101350001F910F91FF90EF90DF90CF90BF90AF90D3
:101360009F908F907F906F905F904F900C94A40807
:10137000B7FCA5CF81149104A104B10409F058CFA2
:1013800080E38983EE24E394F12CE1E0F0E0EC0FBC
:10139000FD1FEE0DFF1D1082E1E0F0E0EC0FFD1FE0
:1013A000E00FF11D8081882309F461CF0F5FF4CF36
:1013B0008AE796E00E942B05892B29F08AE796E0C0
:1013C0000E940905F5CF0895909142039E709630D2
:1013D00019F081E0983009F480E00895AC01809123
:1013E000CC018823D9F0EFECF1E030E020E065E0BB
:1013F000C901A181B2814A175B0751F4629FD001F4
:10140000639FB00D1124A153BE4F7C9170FD08C0A5
:101410002F5F3F4F35962234310551F78FEF9FEF05
:101420000895CF93DF93EC0180911D0390911E03EB
:101430000E94EE091982188297FD15C025E0289FA9
:10144000F001299FF00D1124E153FE4F908192FB92
:10145000882780F992FF04C023813481398328834F
:10146000DF91CF91089580E0FBCF20916E002D7F1A
:1014700020936E00382F3770330F20914203217F65
:10148000232B209342039C01220F331FF901EF5DB0
:10149000FE4F408151815093C5014093C401295EA4
:1014A0003E4FF901808191819093C3018093C201E5
:1014B000259A452B11F42D980895892B11F42D9A16
:1014C000089580E887BD80916E00826080936E00F1
:1014D00008959091CE01911102C08093CE0182E0D7
:1014E00090E00C94350A1092CD011092CC018FEF50
:1014F0009FEF909301018093000110921A031092C4
:10150000190310921C0310921B031092CE0190E05D
:1015100080E00C94350A90E080E008954FB7809108
:101520006F008F7D80936F00109280001092820078
:101530008091BA01809381008091B8019091B901A6
:1015400001979093890080938800F8941092850009
:1015500010928400B19A8091BD018823E1F010922D
:10156000BD018091B8019091B901880F991F9093A6
:10157000890080938800B19BFECF8091B801909143
:10158000B90101979093890080938800109285009B
:1015900010928400B19A80911707109285001092E2
:1015A000840081111DC0209A88E0B19BFECF262FB8
:1015B00030E060FF13C02098B19AB9017595679526
:1015C000815099F7B19BFECF2098B19A4FBFB19B44
:1015D000FECF0E94960681E090E00895209AECCF1D
:1015E000299888E0B19BFECF262F30E060FF0BC02A
:1015F000299AB19AB90175956795815099F7B19B70
:10160000FECF299AE2CF2998F4CFEF92FF920F9361
:101610001F93CF93DF93182FE92E062F8AE796E0CA
:101620000E94BA05F12EC12FDE2D699188E197E065
:101630000E948E0A8C2F8F198017B8F3DF91CF91FB
:101640001F910F91FF90EF9008952F923F924F922C
:101650005F926F927F928F929F92AF92BF92CF9242
:10166000DF92EF92FF920F931F93CF93DF93CDB74B
:10167000DEB766970FB6F894DEBF0FBECDBF8C0104
:1016800088E7A82E84E0B82E6B01C00ED11E90E131
:10169000292E4E0183E0880E911C26E6322E30ED75
:1016A000632E4EE1442E51ED752E60E2F62E72EC63
:1016B000E72EE5E05E2E0C151D0529F1F50181915F
:1016C0005F01F401922D11929A95E9F739826A82AD
:1016D0004C827D82FF82E8865986FA866D86E1E03B
:1016E000EF87788AF3E0FA8BEB8A94E09C8BFD8A93
:1016F0000B871C878E8B66E1CE0101960E94050B3D
:101700000F5F1F4FD8CF66960FB6F894DEBF0FBE9F
:10171000CDBFDF91CF911F910F91FF90EF90DF90A0
:10172000CF90BF90AF909F908F907F906F905F9081
:101730004F903F902F900895CF93DF9300D01F924A
:10174000CDB7DEB720ED29839A838B8363E0CE018A
:1017500001960E94050B0F900F900F90DF91CF9193
:101760000895CF93DF93CDB7DEB72A970FB6F894DD
:10177000DEBF0FBECDBF94E6998322ED2A8393E2AC
:101780009D832F839A8740915A0450915B049A015C
:1017900093E0359527959A95E1F7267020552B8390
:1017A0004F704C836E839EEB98878F7089870E9461
:1017B000DE076AE0CE0101960E94050B2A960FB65D
:1017C000F894DEBF0FBECDBFDF91CF910895CF93C8
:1017D000DF9300D000D000D0CDB7DEB794E6998378
:1017E00092ED9A8393E29D8320915A0430915B0499
:1017F000A90193E0559547959A95E1F74670982F82
:1018000092959F70942B90559B832F708295807F2B
:10181000280F2C836E8366E0CE0101960E94050B93
:1018200026960FB6F894DEBF0FBECDBFDF91CF91E5
:1018300008950F931F93CF93DF9300D000D0CDB7BF
:10184000DEB7009100011091010161E00F3F100728
:1018500029F180E391E00E94050B81ED89831A83D1
:101860000B8363E0CE0101960E94050B80ED898316
:1018700080E38C8380911D0390911E039A838B8358
:1018800064E0CE0101960E94050B0F900F900F901F
:101890000F90DF91CF911F910F9108958FE291E00A
:1018A000E3CFCF93DF93CDB7DEB72A970FB6F89487
:1018B000DEBF0FBECDBF8091420380FF34C0609178
:1018C0001F038DE30E94B10B809152049091530449
:1018D0008130914028F0609120038EE30E94B10B8B
:1018E000609121038FE30E94B10B8AE0E3E0F1E015
:1018F000DE01119601900D928A95E1F76AE0CE0122
:1019000001960E94050B60E282E293E00E94050BC3
:1019100080911D0390911E030E949C0B80914203B5
:101920008E7F809342032A960FB6F894DEBF0FBED7
:10193000CDBFDF91CF910895EFE6F0E080818F7DFC
:101940008083209A8FE79BEB0197F1F700C000009E
:1019500020980C949606CF92DF92EF92FF92FFB6FA
:10196000F8940E949C0C80916F008F7D80936F0093
:101970001092800081E88093810010928200B59AD5
:1019800090E080E0B59906C0803325E7920729F002
:101990000196F8CF8033954759F4FFBEC12CD12C66
:1019A0007601C701B601FF90EF90DF90CF900895C8
:1019B000E0918600F0918700B59A64E020E030E085
:1019C000A90190E080E0B59906C0803375E79707DC
:1019D00021F30196F8CF80339547F9F2B59A8091BB
:1019E0008600909187008E1B9F0B280F391F411D89
:1019F000511DE0918600F0918700615011F7FFBE04
:101A000060E070E281EA97E00E94A02469017A0117
:101A10000E949606C6CFCF93C82F0E94E409811179
:101A20000FC00E949C0C0E94170E811105C090E00F
:101A300080E0CF910C94350A8C2FCF910C94690AD9
:101A4000CF9108958F929F92AF92BF92EF92FF92A3
:101A50000F931F93CF93DF937C018B018091BE0185
:101A6000882329F01092BE0189E10E940B0D812C80
:101A7000912C5401D0E0C0E088E197E00E942A0751
:101A8000892BA9F088E197E00E9436079E012F5F1D
:101A90003F4FCE0DDF1D88830115110519F020176A
:101AA0003107F9F0E90180E090E0DC0102C0D501E6
:101AB000C4014C015D012FEF821A920AA20AB20AF8
:101AC00080349C49A105B105B8F2CE01DF91CF91D8
:101AD0001F910F91FF90EF90BF90AF909F908F90CC
:101AE0000895E801F2CFFF920F931F93CF93DF93F6
:101AF000CDB7DEB72B970FB6F894DEBF0FBECDBFC4
:101B000084E6F82EFE8202ED0F8313E21A8787EB3C
:101B1000888787EE89870E94DE0765E0CE010696FA
:101B20000E94050B1B86F9820A831D8380915A044B
:101B300090915B049C0193E0359527959A95E1F788
:101B40002670296B2B838F7080528C830E94DE0756
:101B500065E0CE0101960E94050B61E070E0CE01C8
:101B60000B960E94220D8B852B960FB6F894DEBF44
:101B70000FBECDBFDF91CF911F910F91FF900895C0
:101B8000CF93DF93CDB7DEB72A970FB6F894DEBFB9
:101B90000FBECDBF1A8694E6998322ED2A8393E285
:101BA0009D832E83998796EB9B838F708C832091E6
:101BB0005A0430915B04C90133E0959587953A95B5
:101BC000E1F7867088548F832F7028870E94DE0784
:101BD00069E0CE0101960E94050B61E070E0CE0144
:101BE0000A960E94220D8A852A960FB6F894DEBFC7
:101BF0000FBECDBFDF91CF910895CF93DF9300D07B
:101C0000CDB7DEB762E070E0CE0101960E94220DF2
:101C1000823039F48981811104C081E09A8195353F
:101C200009F080E00F900F90DF91CF910895CF934E
:101C3000DF931F92CDB7DEB761E070E0CE01019671
:101C40000E94220D813019F49981953509F080E0C8
:101C50000F90DF91CF910895CF93DF93CDB7DEB78B
:101C60002A970FB6F894DEBF0FBECDBF8091420316
:101C700080FD5CC00E94DE0761E08EE291E00E9480
:101C8000050B62E070E0CE0101960E94220D898171
:101C900090E0982F88272A812150330B820F931FC1
:101CA00090931E0380931D038AE0EDE0F1E0DE01D6
:101CB000119601900D928A95E1F70E94DE076AE085
:101CC000CE0101960E94050B60E270E082E293E093
:101CD0000E94220D8FE30E94C00D809321038DE3AB
:101CE0000E94C00D90E09093200380931F03809189
:101CF0005204909153042091540430915504820F62
:101D0000931F8F3F910569F060F08EE30E94C00D34
:101D100020911F0330912003382B30932003209310
:101D20001F03809142038160809342032A960FB67D
:101D3000F894DEBF0FBECDBFDF91CF9108952F92F3
:101D40003F924F925F926F927F928F929F92AF924B
:101D5000BF92CF92DF92EF92FF920F931F93CF9398
:101D6000DF93CDB7DEB7A7970FB6F894DEBF0FBEEF
:101D7000CDBF8C01F8E7AF2EF4E0BF2E6B01C80E8B
:101D8000D91EA6E69A2EB0ED8B2E8CE1782E91ED21
:101D9000692E20E2E22E32EC532E45E0442E54E030
:101DA000352E62E0262E72EDF72E0C151D0509F476
:101DB00092C0F50141915F01188E198E1A8E1B8E0B
:101DC0009E8A8F8A798E6A8EEC8E5D8E4E8EEF8E15
:101DD00038A229A20AA31BA3FCA283E28FA36091CD
:101DE0006404709165049B0193E0359527959A955D
:101DF000E1F72670296B2DA3606F6EA3F9828C83A7
:101E0000FD828887FA868D87FE86898BFA8A8D8B7C
:101E100080917404909175049C0153E03595279549
:101E20005A95E1F72670296B2A838F7080528B8335
:101E300080915A0490915B049C0163E0359527954D
:101E40006A95E1F72670216B2E838F7080528F8305
:101E5000498780917204909173049C0173E03595D9
:101E600027957A95E1F72670296B2B878F70805222
:101E70008C8780916204909163049C01E3E0359526
:101E80002795EA95E1F72670296B2F878F7090ECE4
:101E9000980F988B2B8B80538C8B6EE0CE014696DF
:101EA0000E94050B8091640490916504892B29F0B0
:101EB00064E0CE0184960E94050B65E1CE01019697
:101EC0000E94050B8FE19EE40197F1F700C000002E
:101ED0000F5F1F4F6ACFA7960FB6F894DEBF0FBEF5
:101EE000CDBFDF91CF911F910F91FF90EF90DF90C9
:101EF000CF90BF90AF909F908F907F906F905F90AA
:101F00004F903F902F90089560E08CE00E945A0619
:101F100060E08AE00E945A0660E08BE00E945A0668
:101F20008FE39CE90197F1F700C0000060E088E0D2
:101F30000E945A060C949606CF93DF93C82FD8E0E0
:101F40006C2F661F6627661F8AE00E942C0661E0E0
:101F50008CE00E942C0685E18A95F1F70000CC0FF9
:101F60008BE00E940306C80F60E08CE00E942C0604
:101F700085E18A95F1F70000D15011F78C2FDF91A0
:101F8000CF9108950F931F93CF93DF93162FD42FE4
:101F9000C22F0E949C0F812F0E949C0F8D2F0E94A8
:101FA0009C0FD82F8C2F002331F0DF91CF911F9100
:101FB0000F910C949C0F0E949C0F8D2FDF91CF915D
:101FC0001F910F910895CF92DF92EF92FF920F939E
:101FD0001F93CF93DF93D82ED62FC42E01E020E09D
:101FE00040E060E080E50E94C20F182F20E040E052
:101FF00068E088E50E94C20FE82E20E040E068E03B
:1020000080E50E94C20FF82E812FD1108E2DCD2F8A
:10201000C095C823DC21CD2BD11002C01C2FCE2DA2
:1020200001E0212F40E060EA8CEA0E94C20F8FE5B8
:102030009AEE0197F1F700C0000020E040E060E078
:1020400080E50E94C20FD1E08113D0E001E02F2D86
:1020500040E064EA8CEA0E94C20F8FE59AEE019795
:10206000F1F700C0000020E040E068E080E50E9459
:10207000C20F91E08F1190E0D92301E02C2F40E0B6
:1020800068EA8CEA0E94C20F8FE59AEE0197F1F799
:1020900000C0000020E040E068E088E50E94C20F38
:1020A00091E08C1390E0892F8D23DF91CF911F91C8
:1020B0000F91FF90EF90DF90CF9008950F93CF9303
:1020C000DF9301E020E040E060E080E30E94C20F87
:1020D0008E31B9F420E041E060E080E30E94C20F5D
:1020E000C82FD0E0DC2FCC2720E042E060E080E386
:1020F0000E94C20F9E01282BC901DF91CF910F9141
:10210000089590E080E0F9CF0F93CF9380916F0016
:102110008F7D80936F00C5E061E088E00E945A06E1
:1021200060E088E00E942C0625E02A95F1F7000087
:1021300061E08CE00E945A0660E08CE00E942C0670
:1021400061E08AE00E945A0661E08AE00E942C0663
:1021500060E08BE00E945A0661E088E00E942C0655
:1021600080EA8A95F1F760E088E00E942C069FEFF4
:1021700026E781E0915020408040E1F700C0000058
:1021800000E020E040E063E58CEA0E94C20F833566
:1021900039F0C15009F0C0CF0E94840F80E007C021
:1021A0008FE59AEE0197F1F700C0000081E0CF9132
:1021B0000F910895CF93DF93CDB7DEB729970FB670
:1021C000F894DEBF0FBECDBF809160049091610492
:1021D000892B51F10E94730D80FF07C08FE891E0B9
:1021E0000197F1F700C00000F5CF80916004909155
:1021F00061040E949C0B61E18DE10E94E70B84E683
:10220000898392ED9A8383E28D839E8395E99F83F0
:1022100098EE988789878FEB8B8387ED8C8369E0B5
:10222000CE0101960E94050B29960FB6F894DEBFE9
:102230000FBECDBFDF91CF9108952F923F924F9265
:102240005F926F927F928F929F92AF92BF92CF9246
:10225000DF92EF92FF920F931F93CF93DF93CDB74F
:10226000DEB765970FB6F894DEBF0FBECDBF382E30
:10227000292E5B018A016A01CC0CDD1C4D2C94E0F7
:10228000F92E4E0183E0880E911C20ED722E31ED67
:10229000632E40E2E42E52EC552EF4018DE01192B3
:1022A0008A95E9F7E6E6E9837A82FEE1FC836D82AE
:1022B000EF82588685E08987EA867D86688A5B8A10
:1022C000E2E0EC8BED8A3B862C86498ACA8A0E9422
:1022D000DE0765E1CE0101960E94050BB801C5013C
:1022E0000E94220D0817190741F1EFE1FEE4319732
:1022F000F1F700C00000FA94F110CFCF21E0801771
:10230000910709F020E0822F65960FB6F894DEBFA2
:102310000FBECDBFDF91CF911F910F91FF90EF9036
:10232000DF90CF90BF90AF909F908F907F906F90F5
:102330005F904F903F902F900895C801DFCFCF93CB
:10234000DF9300D0CDB7DEB742E050E0BE016F5F53
:102350007F4F0E941D11811103C08AE00E940B0D66
:102360008A8190E0982F88272981820F911D0F90F4
:102370000F90DF91CF910895CF93DF934091760432
:102380005091770422273327241B350B2823392328
:102390002817390729F089E0DF91CF910C94690A59
:1023A00020911903222339F02091C6013091C701F1
:1023B0002817390789F0EC0160E573E00E941D11D0
:1023C000811103C08AE00E940B0DD093C701C09316
:1023D000C60181E080931903DF91CF910895CF93D7
:1023E00060E088E00E945A068FE39CE90197F1F7CC
:1023F00000C000000E94AB0C609343037093440341
:1024000080934503909346036115710581059105FD
:1024100019F480E0CF9108950E94A10661E081E364
:1024200091E00E94050B80916F008F7D80936F007B
:10243000C6E9C150D8F40E94AB0C6093430370937B
:102440004403809345039093460360914303709146
:102450004403809145039091460361157105810500
:102460009105B9F20E94A10681E0D4CF88E00E94D4
:102470000306892B39F08FE99FE00197F1F700C03F
:102480000000D7CFCC2309F3D6CFCF93DF930E94A0
:10249000E409882359F04FEF5FEFBA0183E592E03A
:1024A0000E94D70880E0DF91CF91089561E08CE22F
:1024B00091E00E94050BC5E6D0E0219769F088E124
:1024C00097E00E942A07892B39F48FE99FE0019752
:1024D000F1F700C00000F1CF0E94FD0D811103C093
:1024E00088E00E940B0DE2E2F3E080E281938150EC
:1024F000E9F71092210310921E0310921D0384E34A
:1025000092E19093200380931F03809142038160A6
:102510008093420381E0C7CFCF93DF93FC0101900A
:102520000020E9F73197E81BF90BEC3FF10598F42F
:10253000F0931C03E0931B03C0911B03D0911C0379
:10254000AE01BC0188E795E00E94FC24CE01DF913A
:10255000CF910C94A4082BEF30E030931C03209310
:102560001B03EACF082E000C990B0E94E724982F3A
:1025700080ED890F8A3040F08FEB890F863018F498
:1025800089EC890F08958FEF0895FF920F931F93A1
:10259000CF93DF938C01EB01188219821A821B8280
:1025A000F12CF801EF0DF11D80810E94B212282F4D
:1025B0008F3FA9F088819981AA81BB8134E0880F7F
:1025C000991FAA1FBB1F3A95D1F7820F911DA11D1C
:1025D000B11D88839983AA83BB83F394E2CF8F2DA7
:1025E000DF91CF911F910F91FF9008952F923F920D
:1025F0004F925F926F927F928F929F92AF92BF9213
:10260000CF92DF92EF92FF920F931F93CF93DF93BE
:10261000CDB7DEB72D970FB6F894DEBF0FBECDBF96
:102620008C017B018091760490917704919581953E
:1026300091098023912380179107E1F08CE00E949B
:10264000690A2D960FB6F894DEBF0FBECDBFDF919D
:10265000CF911F910F91FF90EF90DF90CF90BF909F
:10266000AF909F908F907F906F905F904F903F9032
:102670002F9008950E94DA10C8010E94BC11C090EA
:102680007604D0907704A60160E573E0C7010E944C
:10269000EF24892BB1F240E0242F30E02C153D05CA
:1026A00098F4F901E05BFC4F808190E08095909573
:1026B0002E0D3F1DF901208130E082239323892BC9
:1026C00009F07CC04F5FE8CF80E0109219038111C0
:1026D00077C055245394412C52ED752E63E2662E3B
:1026E00075E9272EE8EE3E2EA42CB12C20915E0435
:1026F00030915F04C901880F991F820F931F0196C3
:10270000A816B90608F015C180915C0490915D048B
:10271000A89E6001A99ED00CB89ED00C1124470140
:102720008C0C9D1CC00ED11E6C2D8EE10E94E70BFF
:102730006D2D8FE10E94E70B61E08DE10E94E70BB8
:10274000D12C92E3C92E8D2D90E020915C04309124
:102750005D048217930708F083C0880D991DFC0162
:10276000608180E00E94E70BE1E0ED0DE80DF92DBE
:10277000F11DD394D394608181E00E94E70B809196
:10278000600490916104009711F00E949C0BF4E6A4
:10279000F9837A826D827E822F82388669867A8674
:1027A00086E98B87CC866D869FEB9B83E7EDEC8378
:1027B0006DE0CE0101960E94050BC5CF81E085CF6B
:1027C0000E94DE07602F8EE10E94E70B612F8FE1F0
:1027D0000E94E70B63E08DE10E94E70B80916004AB
:1027E00090916104009711F00E949C0B84E689830C
:1027F00082ED8A8393E29D838E8385E98F8388EEC1
:10280000888783E389878FEB8B8387ED8C8369E0EF
:10281000CE0101960E94050B0E94FD0D811106C09C
:102820008DE00E940B0D0E94DA100BCF0E94DA108F
:10283000C0907604D0907704A6016FEF70E080E539
:1028400093E00E940525A60160E573E0C7010E94A0
:10285000EF24892B09F03DCF81E080931903F1CE5D
:10286000A29E6001A39ED00CB29ED00C1124C00E7B
:10287000D11E8091C8019091C901A091CA01B09167
:10288000CB010196A11DB11D8093C8019093C90190
:10289000A093CA01B093CB010E94DE076C2D8EE19C
:1028A0000E94E70B6D2D8FE10E94E70B65E08DE143
:1028B0000E94E70B8091600490916104009711F0F1
:1028C0000E949C0BF4E6F9837A826D827E822F82CD
:1028D000388683E389878FEB8B8387ED8C8369E070
:1028E000CE0101960E94050B8091600490916104D5
:1028F000892B39F40E94FD0D58220E94DA1043946E
:10290000F3CE88EEC82E83E0D82E0E94730D8F710F
:1029100059F081E0C81AD10838F0EFE8F1E03197BA
:10292000F1F700C00000F1CF81E0CD2829F780E069
:10293000E3CF552089F04091760450917704B70198
:1029400080E593E00E94FC2481E0809319031093BA
:10295000C7010093C60175CE8FE00E940B0D71CEAA
:10296000AF92BF92CF92DF92EF92FF920F931F939D
:10297000CF93DF937C01EB01209709F47BC000919A
:10298000760410917704680181E0C81AD108CE203E
:10299000DF20C114D10409F444C0AA24BB24A01A26
:1029A000B10AAE20BF200C191D096017710708F489
:1029B0008B01C5010E94BC114091760450917704AF
:1029C00060E573E080ED93E00E94FC24A80168E7D5
:1029D00074E0C60180539C4F0E94FC2460ED73E0BC
:1029E000C5010E94F612E00EF11EC80188589B4FE7
:1029F0006C01C01BD10B8091760490917704C817AD
:102A0000D907A0F0B601C7010E94F61280917604A2
:102A100090917704E80EF91EC80ED91EC81BD90B79
:102A2000EACF88E7C82E84E0D82EE5CF209711F1B1
:102A3000C7010E94BC11409176045091770460E573
:102A400073E080ED93E00E94FC24AE01B60180EDBE
:102A500093E00E94FC2460ED73E0C701DF91CF9109
:102A60001F910F91FF90EF90DF90CF90BF90AF90AC
:102A70000C94F612DF91CF911F910F91FF90EF9080
:102A8000DF90CF90BF90AF9008952F923F924F92DA
:102A90005F926F927F928F929F92AF92BF92CF92EE
:102AA000DF92EF92FF920F931F93CF93DF93CDB7F7
:102AB000DEB7C958D1090FB6F894DEBF0FBECDBF3F
:102AC000F090CC01FF2009F43FC1C757DF4F888346
:102AD000C958D0400E94E409811136C140910001DB
:102AE0005091010110E000E030E020E065E0629FDD
:102AF000F001639FF00D1124E153FE4F808180FFB0
:102B000022C082FB992790F981FF4EC0C757DF4F43
:102B10007881C958D040711114C0911114C083FD3F
:102B200012C0D801AA0FBB1F81E090E08C0F9D1F3F
:102B3000A80FB91F818192818D939C930F5F1F4FC6
:102B400002C09111EECF2F5F3F4F2234310579F64D
:102B5000F092CC015093010140930001DE011196E7
:102B60002D01F801EE0FFF1FEA0FFB1F8FEF9FEF04
:102B70009183808381E090E0081719070CF1FC0134
:102B8000EE0FFF1FE40DF51D32912291428153811A
:102B90004217530738F45183408333832283E4156B
:102BA000F50591F70196E8CF9111BBCF8E7F808319
:102BB00083FF04C0877F80834FEF5FEFFA94C3CF1A
:102BC000F12CE12CD12CC12C809158049091590406
:102BD000E816F90608F0B8C0C016D1060CF0B4C06B
:102BE000F601EE0FFF1FE40DF51D20813181220F4C
:102BF000331F2E153F0508F4A0C0809176049091F4
:102C000077048E0D9F1D2817390708F096C04F01D5
:102C1000360121913191220F331F2817390720F4F3
:102C2000BFEF6B1A7B0AF5CFC7010E94BC11409120
:102C300076045091770460E573E080ED93E00E94A4
:102C4000FC24C614D7040CF072C0EFEFCE1ADE0AD3
:102C5000D4018D919D914D010E94EE095C0197FF79
:102C600003C088E10E94690AB5E0BA9DF001BB9DEE
:102C7000F00D1124E153FE4F21813281220F331FC9
:102C80002090760430907704C901B1010E94782425
:102C9000C957DF4F99838883C758D040C90101962F
:102CA000B1010E9478242081BC0160537C4FC95738
:102CB000DF4F88819981C758D04080539C4F21FFB6
:102CC0001BC0C757DF4F2881C958D040211114C0FD
:102CD000DB012C9130E0322F2227DC014C91240FB4
:102CE000311D34832383208124602083E8E9EC9321
:102CF000E5E9DB01EC93A5CF25E02A9DF0012B9DB2
:102D0000F00D1124E153FE4F33812481DC013C930B
:102D1000DB012C9380818B7F808381FD92CF8E7F1E
:102D200080838091CC0181508093CC018ACF60ED6B
:102D300073E0C7010E94F6126301809176049091BE
:102D40007704E80EF91E40CFC757DF4F0FB6F8944F
:102D5000DEBF0FBECDBFDF91CF911F910F91FF90CE
:102D6000EF90DF90CF90BF90AF909F908F907F902B
:102D70006F905F904F903F902F9008952091CC01DD
:102D800090E080E045E0489FF001499FF00D11245C
:102D9000E153FE4F30813D7F308330FD2F5F019640
:102DA0008234910581F72093CC0180E00C94451585
:102DB000CF92DF92EF92FF920F931F93CF93DF9307
:102DC00000D0CDB7DEB70E94EF11882309F448C0C8
:102DD0000E94DE0761E08BE291E00E94050B62E059
:102DE00070E0CE0101960E94220D898190E0982F1B
:102DF00088272A81820F911D0E945607F82E88236A
:102E000009F441C083E090E00E94350A4EEF5FEF85
:102E10006FEF7FEF8AEF97E00E94D708409143035E
:102E200050914403609145037091460383E392E01F
:102E30000E94D7080E9445120E94BE160E94D8091F
:102E400088E591E00E948C128F2D0F900F90DF91FA
:102E5000CF911F910F91FF90EF90DF90CF90089549
:102E60000E948410882331F00E945E10009729F49C
:102E70000E94840F0FEF1FEF16C00E9456078111AA
:102E800005C00E94840F0EEF1FEF0DC001E020E08F
:102E900040E060E088E50E94C20F8F3FE1F00E94B1
:102EA000840F0DEF1FEF82E090E00E94350A0E9430
:102EB000D8094FEF5FEFBA018CEA91E00E3F2FEF98
:102EC000120731F00F3F1F4F09F0BBC081ED91E0B9
:102ED0000E94D70897C040E060916C0481E00E9496
:102EE000E30F01E0082710E01195019511090E94F8
:102EF000840F0115110509F0BDCF80916F008F7D02
:102F000080936F0081E090E00E94350A83E0C82E34
:102F1000D12CC801B6010E948C247C01892B11F5AB
:102F20008091420360E086FD79C089E00E942C0612
:102F30002FEF89E698E1215080409040E1F700C0F2
:102F400000008091420386FD71C061E089E00E942B
:102F50002C062FEF83EC99E0215080409040E1F760
:102F600000C000000F5F1F4FEF2881F403301105F0
:102F70006CF00E94D8094FEF5FEFBA018EE092E04B
:102F80000E94D7080E9494088D3299F32FEF83EDA9
:102F900090E3215080409040E1F700C000000E9483
:102FA00096060E94EF11F82E882341F183E090E00D
:102FB0000E94350A0E94D8094EEF5FEF6FEF7FEF56
:102FC0008AEF97E00E94D708409143035091440351
:102FD00060914503709146038EEE91E00E94D70800
:102FE0002FEF81EE94E0215080409040E1F700C047
:102FF00000000E94D8090E94BE1622CF0C33110592
:1030000009F087CF82E090E00E94350A0E94D8093B
:103010008BE591E00E948C12F12C16CF89E00E9482
:103020005A0660E087E00E945A0682CF84FF91CF63
:1030300061E085FF04C089E00E945A068ACF87E0DC
:10304000FBCF8AE891E044CF1F93CF93DF93EC014D
:103050000E94E409182F90E080E00E94350A0E9447
:10306000EF11882329F061E08DE291E00E94050BC9
:103070000E948410882331F00E945E10009741F472
:103080000E94840F4FEF5FEFBA018DE293E00BC017
:103090000E94560781110EC00E94840F4FEF5FEF10
:1030A000BA0188E193E00E94D7080E94D8098BE515
:1030B00091E035C0C230D105B9F1C330D10509F472
:1030C00042C0219771F460916E04462F80E00E9407
:1030D000E30F811148C04FEF5FEFBA0180E093E04A
:1030E000E2CF40E060916E0480E00E94E30F88230D
:1030F00091F34FEF5FEFBA0182EE92E00E94D708A2
:103100002FEF83EC99E0215080409040E1F700C020
:1031100000000E94D809112361F188E591E0DF9158
:10312000CF911F910C948C124091660460917004B1
:1031300080E00E94E30F882371F24FEF5FEFBA0146
:103140008CE992E0DBCF409168046091700480E0EC
:103150000E94E30F882309F4BECF4FEF5FEFBA015F
:1031600080E792E0CBCF4FEF5FEFBA0182EC92E0C5
:10317000C5CFDF91CF911F910C94D816CF92DF92DB
:10318000EF92FF921F93CF93DF93182F0E942C0E84
:103190000E94E409811104C083E090E00E94350A96
:1031A000143089F0163009F4ADC0113099F44FEFA6
:1031B0005FEFBA0188EA93E00E94D70890E080E0D0
:1031C0000E94350A07C04FEF5FEFBA0184E993E030
:1031D0000E94D708C0901D03D0901E03F12CE12C53
:1031E000CC0CDD1CEE1CFF1C46E250E06AE473E0F0
:1031F00088E795E00E946F2486E290E090931C039C
:1032000080931B03812F82958F700E9450078093BB
:103210007905812F8F700E94500780937A05C091A5
:1032200021038C2F82958F700E94500780937E051A
:103230008C2F8F700E94500780937F05C0911F03D1
:10324000D0912003CE0124E0969587952A95E1F749
:103250008F700E945007809384058C2F8F700E947E
:103260005007809385058D2F82958F700E9450079F
:10327000809386058D2F8F700E945007809387055D
:10328000D701C60134E0B695A795979587953A95ED
:10329000D1F78F700E94500780938C058C2D8F7012
:1032A0000E94500780938D05D701C6014CE0B6956A
:1032B000A795979587954A95D1F78F700E945007EB
:1032C00080938E058D2D8F700E94500780938F05FF
:1032D000C0E3C09390058E2D0E9450078093910506
:1032E000C0939205C093930586E290E00E94A408E3
:1032F00010931A03DF91CF911F91FF90EF90DF9011
:10330000CF9008954091CE0150E070E060E081E7F9
:1033100093E00E94D70882E090E052CF1F920F9274
:103320000FB60F9211242F933F938F939F93AF93D8
:10333000BF9380914C0390914D03A0914E03B091A7
:103340004F0330914B0323E0230F2D3758F501969F
:10335000A11DB11D20934B0380934C0390934D030B
:10336000A0934E03B0934F0380914703909148037D
:10337000A0914903B0914A030196A11DB11D80930C
:10338000470390934803A0934903B0934A03BF9126
:10339000AF919F918F913F912F910F900FBE0F9002
:1033A0001F90189526E8230F0296A11DB11DD2CFBC
:1033B0001F920F920FB60F9211242F933F934F93AA
:1033C0005F936F937F938F939F93AF93BF93EF938D
:1033D000FF938AE796E00E944B05FF91EF91BF9122
:1033E000AF919F918F917F916F915F914F913F919D
:1033F0002F910F900FBE0F901F9018951F920F9254
:103400000FB60F9211242F938F939F93EF93FF93F7
:10341000E0918A06F0918B068081E0919006F09110
:10342000910682FD1BC09081809193068F5F8F7300
:1034300020919406821741F0E0919306F0E0E6585F
:10344000F94F958F80939306FF91EF919F918F9104
:103450002F910F900FBE0F901F9018958081F4CF81
:103460008F93809186009F9390918700EF93FF93B5
:10347000EFB7EF93E0918400F0918500E81BF90B22
:103480008091B6019091B701909389008093880054
:103490008091BA0180FDB396F0938500E09384009B
:1034A00080938100B19AE09178068E2FF0E0EA587F
:1034B000FE4FEF93FF9383958F7390917906891751
:1034C00019F08093780603C081E08093BE0198E0F4
:1034D0008827915081F08894B19BFECF1899089469
:1034E0008795E091B801F091B901F0938900E093DC
:1034F0008800B19AEECF3A97F0938900E093880064
:10350000E1E0E093BD018894B19BFECFE091BC0166
:10351000E0938100FF91EF91B59A189908948795EF
:103520008083FF91FFBFFF91EF919F918F9118953D
:103530001F920F920FB60F9211248F939F93809139
:10354000C10181111FC081E08093C10178948091F5
:10355000BF019091C00101979093C0018093BF017A
:103560002D9B17C097FF09C08091C2019091C301A4
:103570009093C0018093BF012D988091C10181502B
:103580008093C1019F918F910F900FBE0F901F905C
:10359000189597FFF2CF8091C4019091C501909347
:1035A000C0018093BF012D9AE8CFCF93DF93EAE764
:1035B000F6E01382128288EE93E0A0E0B0E084830C
:1035C0009583A683B78328E331E03183208325ECFC
:1035D00030E03587248724EC30E03787268720ECDD
:1035E00030E0318B208B21EC30E0338B228B22ECCE
:1035F00030E0358B248B26EC30E0378B268B118E18
:10360000128E138E148EC8E1D7E01B821A828C832F
:103610009D83AE83BF838AE491E09983888310926F
:1036200017071092BE0160E088E00E945A068AE403
:1036300091E099838883DF91CF910895CF93DF93B1
:10364000CDB7DEB7E2970FB6F894DEBF0FBECDBFA1
:10365000789484B5826084BD84B5816084BD85B56D
:10366000826085BD85B5816085BD80916E00816079
:1036700080936E001092810080918100826080931F
:103680008100809181008160809381008091800021
:103690008160809380008091B10084608093B1004C
:1036A0008091B00081608093B00080917A00846046
:1036B00080937A0080917A00826080937A00809172
:1036C0007A00816080937A0080917A00806880938C
:1036D0007A001092C10010926E0084B1856084B9A6
:1036E000E0918A06F0918B0682E08083E091860665
:1036F000F09187061082E0918806F091890680E1BA
:10370000808310929206E0918E06F0918F0686E0FB
:103710008083E0918C06F0918D06808180618083AA
:10372000E0918C06F0918D06808188608083E09125
:103730008C06F0918D06808180688083E0918C06F4
:10374000F0918D0680818F7D808362E085E00E940C
:103750005A06809142038F7E8093420362E082E0AA
:103760000E945A06809142038F7D8093420362E05B
:103770008EE00E945A06809142038F7B8093420321
:103780000E94730A90E2792ECE0103969AAB89AB20
:103790008EE00E9403069C0181E02115310509F0AD
:1037A00080E09091420380FB96F990934203232B93
:1037B00019F161E089E00E945A0661E089E00E9407
:1037C0002C06809142038F7E809342038AE796E025
:1037D0000E942B05892B11F40C940C240E94940850
:1037E000843209F465C008F059C0833011F40C9498
:1037F000FE238FE691E0C1C095FB112710F982E00E
:103800000E94030621E0892B09F020E01217B1F194
:103810009FEFE6E7F1E09150E040F040E1F700C0B3
:10382000000082E00E94030621E0892B09F020E0DD
:103830008091420320FB85F98093420385E00E943A
:10384000030621E0892B09F020E08091420320FB50
:1038500084F98093420360E087E00E945A0660E0AA
:1038600089E00E945A068091420384FFAFCF61E055
:1038700085FF12C089E00E945A06A8CF109142032A
:103880001295117085E00E94030621E0892B09F052
:1038900020E01213BDCF9ACF87E0EDCF8B32C1F17C
:1038A0008D3209F0A6CF80911B0390911C0318C2A2
:1038B00010921C0310921B030E94940800E02091B8
:1038C0001B0330911C03F901E858FA4F833271F061
:1038D0002F3F31055CF42F5F3F4F30931C03209343
:1038E0001B038083080F0E949408E9CF10820E9476
:1038F00094080E94B212182F1295107F0E9494080B
:103900000E94B212812B081781F08DE20E949F085D
:1039100080E090E0892B09F43BCF0E943705882393
:1039200009F430CF0E9400002DCF8BE20E949F0847
:1039300080917805883509F4A0C490F5873409F49E
:10394000D2C1F0F4833409F40EC5843409F4FFC401
:103950008F3309F04ECF10911A0383E58983812FAD
:1039600082958F700E9450078A83812F8F700E94EA
:1039700050078B831C82CE0101960E948C12C8CF07
:103980008D3409F40EC430F4883409F032CF88E560
:1039900091E0F3CF833509F41CC58435C1F329CFF9
:1039A0008D3609F460C208F088C0833609F4DBC4A0
:1039B00008F06DC08A3509F01CCF0E94E40981111E
:1039C000A7CFBE016A5E7F4F8BE795E00E94C512CC
:1039D00090E0BE016F5F7F4F84589A4F0E94C512DE
:1039E00080917905803309F004CF10917805CE8855
:1039F000DF88E88CF98CF694E794D794C794C601D5
:103A00000E94EE091A3509F090C597FD0BC025E01C
:103A1000289FF001299FF00D1124E153FE4F2081D2
:103A200021FDB5CFB090CD0120910201B21609F46D
:103A30006AC597FF6BC530E020E075E0A72EA29E17
:103A40008001A39E100D112401531E4FF801908197
:103A500090FD50C5D282C18293609B7F908320915C
:103A60000001309101012F3F320709F029C598600C
:103A7000F8019083D0920101C0920001B394B092FA
:103A8000CD018091CC018F5F8093CC0180CF8736B0
:103A900009F48BC08B3609F0ACCE81E00E9445154D
:103AA00060E088E00E942C0661E088E00E945A06EF
:103AB00090E080E00E94350A2BCF833709F489C457
:103AC00008F06CC0813709F094CE46E050E061E325
:103AD00079E088E795E00E946224892B09F046C6C8
:103AE00081E00E9445150EE715E0F80101900020E5
:103AF000E9F78F010F5715400630110508F42AC564
:103B0000A8010D30110514F04CE050E065EE78E0AE
:103B10008EE795E00E946224892B09F034C50E944B
:103B2000EF11882371F061E082E391E00E94050BC0
:103B3000FFEF20E742E0F15020404040E1F700C0B5
:103B400000000E948410882309F413C50E945E10AF
:103B5000009709F001C510E00E94840F809179065A
:103B60008093780680916F008F7D80936F00112382
:103B700009F4FFC44EEF5FEF6FEF7FEF8AEF97E03E
:103B80000E94D7084FEF5FEFBA0180EE97E00E94E6
:103B9000D70890E080E00E94350AF9CE863709F414
:103BA00083C48A3709F409CF24CE80901D039090F6
:103BB0001E03B12CA12C880C991CAA1CBB1C12E260
:103BC000E12E13E0F12E08E715E082E4C82E83E031
:103BD000D82EF70161907F01862D062C000C990BE1
:103BE000A4E095958795AA95E1F78F700E945007FC
:103BF000F8018083862D8F700E945007F801818321
:103C00000E5F1F4FCE14DF0421F710912103812F87
:103C100082958F700E9450078093B805812F8F7016
:103C20000E9450078093B90500911F031091200353
:103C3000C80174E0969587957A95E1F78F700E9498
:103C400050078093BA05802F8F700E945007809391
:103C5000BB05812F82958F700E9450078093BC0511
:103C6000812F8F700E9450078093BD05D501C4013C
:103C7000E4E0B695A79597958795EA95D1F78F706B
:103C80000E9450078093BE05882D8F700E945007B8
:103C90008093BF05D501C401FCE0B695A795979523
:103CA0008795FA95D1F78F700E9450078093C005D1
:103CB000892D8F700E9450078093C10510E31093E7
:103CC000C2058A2D0E9450078093C3051093C40536
:103CD0001093C5058EE490E090931C0380931B0322
:103CE0000E94A40815CE68E7E62E65E0F62EF701DF
:103CF00081810E94B212182FF70182810E94B212B4
:103D0000F2E0EF0EF11C28EBE21625E0F20679F75F
:103D10001295107F812B809322038091B9050E9418
:103D2000B212182F8091BA050E94B2121295107F1C
:103D3000182B109321038091BB050E94B212082F0B
:103D40008091BC050E94B212F82E8091BD050E94A0
:103D5000B21240E1049F8001112490E0982F88273F
:103D60009295907F082B192B0F298091BE050E94F8
:103D7000B212182B1093200300931F038091BF05EC
:103D80000E94B212B82E8091C0050E94B212A82ED5
:103D90008091C1050E94B212082F8091C2050E9435
:103DA000B212182F8091C3050E94B212C82E8091C2
:103DB000C4050E94B212D12CF12CE12C94E1CC0C60
:103DC000DD1CEE1CFF1C9A95D1F7E82A160127018D
:103DD0002A288091C5050E94B21290E0B0E0A0E0D0
:103DE0006C017D012CE1CC0CDD1CEE1CFF1C2A9526
:103DF000D1F7C228D328E428F5288091C6050E946F
:103E0000B212F82AE0E1BE9EC0011124092E000C76
:103E1000AA0BBB0BC82AD92AEA2AFB2A802F90E0DA
:103E2000982F88279295907F092E000CAA0BBB0B28
:103E3000C82AD92AEA2AFB2A812F90E0982F8827BE
:103E4000092E000CAA0BBB0B8C299D29AE29BF297A
:103E50006C017D01F694E794D794C794D0921E0329
:103E6000C0921D0394CD0E94E409882319F08FE5C8
:103E700091E083CDBE01645D7F4F89E795E00E94AC
:103E8000C51290E0BE01685D7F4F86589A4F0E9430
:103E9000C51288A499A4AAA4BBA4F0E88F16910423
:103EA000A104B10440F08BE591E00E948C1285E002
:103EB0000E94690A2DCDCCA4DDA4EEA4FFA4D701F5
:103EC000C60188279927BB27EE24CCA6DDA6EEA63F
:103ED000FFA6009720E8A207B10509F066C0382CBC
:103EE0008401000F111F2D2CE4E06E2EF1ED5F2EEA
:103EF000A2EC4A2EE9A9FAA923E111922A95E9F741
:103F000046E6498380ED8A839EE19C835D827F82C1
:103F10004886E5E0E9877A868D87588A4B8A7D8ACC
:103F2000CB862C860A8B0E94DE0765E1CE010196C6
:103F30000E94050BB40188E794E00E94220D381618
:103F400061F08FE19EE40197F1F700C000006A94F0
:103F50006110D0CF8BE00E940B0DC8A4D9A4EAA4B5
:103F6000FBA4B12C8B2D90E0B0E0A0E08C159D055A
:103F7000AE05BF0508F011C10B2D10E0F801E8589F
:103F8000FB4FA0808A2D82958F700E945007000FF2
:103F9000111F08581A4FF80180838A2D8F700E94D4
:103FA0005007F8018183B394DDCF0097A105B105D7
:103FB00009F041C0A40168E774E0C6010E941D1128
:103FC000811103C08AE00E940B0D88A599A5AAA5BE
:103FD000BBA558E7E52E54E0F52E0CA51DA56801FC
:103FE000C80ED91E65E0B62E0C151D0508F0B5CF1C
:103FF000F701808100FF2BC48539B9F4C80101970E
:10400000969587950E94EE0997FD0FC0B89EF00126
:10401000B99EF00D1124E153FE4F808182FF05C04F
:1040200081FD03C08481F70180830F5F1F4FFFEF85
:10403000EF1AFF0AD9CF0097A148B10509F081C155
:10404000A8E7EA2EA4E0FA2EB6E63B2E10EDB12E3C
:104050000CE1A02E81ED682E92EC592E25E0422E27
:1040600001E012EDC701885794408815990508F0C2
:1040700074CF188E198E1A8E1B8E3E8ABF8AA98E17
:104080006A8E7C8E5D8E4E8E7F8E08A309A3CAA297
:10409000DBA21CA383E28FA34091640450916504CA
:1040A0009A0153E0359527955A95E1F72670296BCB
:1040B0002DA3406F4EA319838C831D838887198796
:1040C0008C871D87888B80917404909175049C0166
:1040D00063E0359527956A95E1F72670296B2A8369
:1040E0008F7080528B8380916204909163049C0155
:1040F00073E0359527957A95E1F72670296B2E8325
:104100008F7080548F8380917204909173049C010E
:10411000E3E035952795EA95E1F72670216B2A872C
:104120008F7080538B8780915A0490915B049C011F
:10413000F3E035952795FA95E1F72670296B2E87E0
:104140008F7080538F870E94DE076EE0CE01469607
:104150000E94050B61E083E391E00E94050B8091D2
:10416000640490916504892B29F064E0CE01849663
:104170000E94050B60E1CE0101960E94050B61E0F3
:1041800070E0CE01C0960E94220D88A9F7018193AC
:104190007F01FFEFCF1ADF0A65CFC601880F991F95
:1041A0009BCD81E00E9445150E94E40981115FCEFC
:1041B000BE016A5E7F4F89E795E00E94C512082F15
:1041C00010E007581A4FBE016F5F7F4FC80101967C
:1041D0000E94C512C980DA80EB80FC8090E00296D4
:1041E000080F191FA12C8A2D90E0B0E0A0E08C15DB
:1041F0009D05AE05BF05B0F4F80180810E94B212A2
:10420000B82EF80181810E94B212EA2DF0E0E85840
:10421000FB4FB294B0EFBB22B82AB082A3940E5FDA
:104220001F4FE1CF8E899F89A88DB98DAC01BD014B
:10423000442755277727AA278E8B9F8BA88FB98F66
:1042400041155105F0E86F07710521F4B6010E9490
:10425000250B9DCB411551056105710521F4B60172
:104260000E94B01494CB411551056148710509F0C5
:1042700068C0B6010E949F0E8ACB81E00E9445155E
:104280000E94E4098111F3CDBE016A5E7F4F89E788
:1042900095E00E94C512082F10E007581A4FBE0182
:1042A0006F5F7F4FC80101960E94C512E82FF0E0B2
:1042B0003296E00FF11F29813A8170E060E0A8E7B3
:1042C000B4E062177307E4F4808190E08D3789F4DD
:1042D00081818A3061F048F48350823040F08BE570
:1042E00091E00E948C1287E0E3CD8D35C1F73196C5
:1042F00090E28081892B8D936F5F7F4F3196E1CF64
:104300008E899F89A88DB98D8C019D010027112769
:104310003327AA278E8B9F8BA88FB98F0115110584
:1043200040E82407310509F492CF01151105210554
:10433000310509F495CF011511052148310509F41E
:1043400099CF8BE591E00E948C1286E0B1CD81E09F
:104350000E9445151092190390E080E00E94350AF2
:104360000E94190C14CB8091CE0181110FC00E94C4
:10437000E40981112AC00E944515CE0101960E94D0
:10438000110A882369F083E10E94690A86E0EFE35D
:10439000FFE13197F1F700C000000E94BE18B8CAD3
:1043A00080911D0390911E03880F991F0E949F11F9
:1043B0000E94EA0781110BC00E94510C84E090E03A
:1043C0000E94350A0E94190CA3CA81E0E0CF84E064
:1043D000DECF8091CE01811154C00E94E409811189
:1043E00019C200911D0310911E03CE0146960E9432
:1043F000110A8823D9F01E890F89812F902F0E94DE
:10440000EA07882311F084E0C8CF0E94510C82EDA6
:10441000898383E28C830A831B8364E0CE01019647
:104420000E94050B0E942C0E85E0B7CF80911D03E2
:1044300090911E03880F991F0E949F110E94EA0706
:104440008111E1CF0E94510C80E6898380ED8A833F
:1044500081E38D8380911D0390911E039B838C8348
:1044600065E0CE0101960E94050B0E94FD0D8111B1
:104470000AC08091420381608093420385E10E94DB
:104480000B0D86E08ACF0E942C0E80911D03909127
:104490001E030817190741F68AE796E00E942B05CC
:1044A000892B11F282E079CF48E050E068E379E0AF
:1044B00088E795E00E946224892B09F09AC967CAAF
:1044C000C9010E94EE0997FD11C0A89EF001A99EA6
:1044D000F00D1124E153FE4F808183FF07C0877FD9
:1044E0008083F801808188608083C4CA82E10E9451
:1044F000690AC4CA2F5F3F4F2234310509F09FCAB1
:1045000083E00E94690A83E691E037CA25E0289F8C
:10451000F001299FF00D1124E153FE4F808182604C
:104520008083B394B092CD0132CA97FD30CA25E0A2
:10453000289FF001299FF00D1124E153FE4F808147
:1045400081FF25CA8D7F80838091CD01815080932A
:10455000CD011DCA46E0D9CA0E945607882309F436
:10456000FACA60916C04462F81E00E94E30F182F75
:10457000F3CA4FEF5FEFBA0188E098E00E94D708D6
:104580008BE591E0FAC90630110588F0A8010531E4
:10459000110514F044E150E060ED78E08EE795E01D
:1045A0000E946224892B29F40E94D816B1C946E0E2
:1045B000F2CF0630110518F1A8010731110514F0EA
:1045C00046E150E069EB78E08EE795E00E946224D6
:1045D000892BB9F44091C8015091C9016091CA0179
:1045E0007091CB018DEB97E00E94D7088FE19EE49C
:1045F0000197F1F700C000000E94D809C8C946E041
:10460000E0CF0630110538F1A8010331110514F08F
:1046100042E150E066EA78E08EE795E00E9462248D
:10462000892B09F4E6C806301105B8F078010B3182
:1046300011051CF06AE1E62EF12CA7016BE878E089
:104640008EE795E00E946224892B51F490E080E08F
:104650000E9424185DC946E0DCCF56E0E52EECCF81
:10466000A70160E778E08EE795E00E946224892B3D
:1046700019F481E090E0ECCF0430110598F0780156
:104680000D3011051CF04CE0E42EF12CA70163E67F
:1046900078E08EE795E00E946224892B31F482E075
:1046A00090E0D6CF34E0E32EF0CF0430110588F04F
:1046B000A8010F30110514F04EE050E064E578E0F9
:1046C0008EE795E00E946224892B29F483E090E034
:1046D000BFCF44E0F2CF04301105A0F068010B30E9
:1046E00011051CF02AE0C22ED12CA60169E478E065
:1046F0008EE795E00E946224892B39F481E0809353
:10470000020145C994E0C92EEFCFA6016EE378E01F
:104710008EE795E00E946224892B11F481E2EFCFAD
:1047200042E050E00230110530F0A80109301105D7
:1047300014F048E050E065E378E08EE795E00E94F1
:104740006224892B11F484E0DACFA70168E278E0D3
:104750008EE795E00E946224892B09F04AC80E94E6
:104760004512811114C987E691E007C94AE050E07B
:1047700066E279E088E795E00E946224892BA9F43B
:1047800084E20E949F088FE0E82E89E0F82E10E076
:10479000F7010491FFEFEF1AFF0A002309F46FC03D
:1047A000802F0E949F08100FF3CF42E050E06CE092
:1047B00079E088E795E00E946224892B19F48BE662
:1047C00091E0DBC84CE050E06FEF78E088E795E0DF
:1047D0000E946224892B19F480E791E0CEC84CE056
:1047E00050E062EF78E088E795E00E946224892B30
:1047F00011F00C94F91B83E791E0BFC8809142034C
:104800008E70883009F084C80E949C0C0E94170E9C
:10481000811148CE81E0C1CD809142038E708830F5
:1048200009F076C888E197E00E942A07892B09F4ED
:104830006FC888E197E00E943607853509F068C89F
:104840008FE19EE40197F1F700C00000EDCD8839BB
:1048500009F0EBCBC801969587950E94EE0997FD6C
:10486000E4CBB89EF001B99EF00D1124E153FE4F48
:10487000808182FFDACB81FDD8CB8381D4CB83E2E8
:104880000E949F08812F82958F700E9450070E947E
:104890009F08812F8F700E9450070E949F080E94DE
:1048A000730A82CE8AE491E09093190780931807E7
:1048B0008091790680937806EFE6F0E080818F7D25
:1048C00080830895FB01DC0104C08D91059080195F
:1048D00021F441505040C8F7881B990B0895FB0103
:1048E000DC0102C005900D9241505040D8F7089568
:1048F000AA1BBB1B51E107C0AA1FBB1FA617B70706
:1049000010F0A61BB70B881F991F5A95A9F7809521
:104910009095BC01CD01089597FB072E16F40094E5
:1049200007D077FD09D00E94782407FC05D03EF41B
:10493000909581959F4F0895709561957F4F08954B
:10494000A1E21A2EAA1BBB1BFD010DC0AA1FBB1F93
:10495000EE1FFF1FA217B307E407F50720F0A21B05
:10496000B30BE40BF50B661F771F881F991F1A9472
:1049700069F760957095809590959B01AC01BD019C
:10498000CF010895052E97FB1EF400940E94D924B0
:1049900057FD07D00E94A02407FC03D04EF40C94CE
:1049A000D92450954095309521953F4F4F4F5F4FFB
:1049B000089590958095709561957F4F8F4F9F4F8B
:1049C0000895EE0FFF1F0590F491E02D09949111C9
:1049D000089581568A5108F4805285580895FB0144
:1049E000DC0104C08D910190801921F441505040A8
:1049F000C8F7881B990B0895FB01DC0102C00190E8
:104A00000D9241505040D8F70895DC0101C06D93DC
:104A100041505040E0F7089514E0C2EAD4E004C0E9
:104A2000FE010E94E1242196C33AD107C9F7F89408
:024A3000FFCFB6
:104A3200FFFF2166D00000D10020C2052066D00011
:104A420000D10020C201200100E80396000000BC52
:104A5200020000640096000100BC02F30706F06049
:104A620061070664000000006D05CD04FA04BA0572
:104A72002B0509051D05000000008E0ACD048B0AD6
:104A820029072A07360718074F4B004530350045DE
:104A92003031004530330045303900514330310068
:064AA2006D31006C000004
:00000001FF
