:100000001DC02CC02BC02AC029C068C127C026C073
:1000100025C024C023C022C021C020C01FC00000B2
:100020000000370000000000380002020202020255
:1000300001020408102001030000040011241FBE67
:10004000CFE5D2E0DEBFCDBF20E0A0E6B0E001C04A
:100050001D92AA36B207E1F73DD18AC1D1CF8130D6
:1000600039F0823049F0833059F0843069F00895D6
:100070008AB58F778ABD08958AB58F7D8ABD089528
:1000800080B78F7D80BF08958CB58F7D8CBDEFCFFD
:1000900080E48CBD8FEF8DBD87EC80BF089583E039
:1000A0008ABD83BF789489B7826089BFF1DF86E813
:1000B00086B9089508953FB7F894809166009091AD
:1000C0006700A0916800B091690022B708B601FEF0
:1000D00005C02F3F19F00196A11DB11D3FBFBA2FDA
:1000E000A92F982F8827BC01CD01620F711D811D9A
:1000F000911D660F771F881F991F660F771F881F36
:10010000991F660F771F881F991F0895CF92DF925E
:10011000EF92FF92CF93DF936B017C01CCDFEB0179
:1001200012C081E0C81AD108E108F108C851DC4FBB
:10013000C2DF6C1B7D0B683E734028F0C114D104F4
:10014000E104F10471F7C114D104E104F10481F771
:10015000DF91CF91FF90EF90DF90CF9008950F93B4
:100160001F93CF93DF93162F882344F1282F30E07D
:10017000F901EA5CFF4F8491F901E05DFF4F0491C2
:10018000265D3F4FF9012491C22FD0E0222389F050
:10019000811124C0FE01EE0FFF1FEC5DFF4FA59102
:1001A000B4911123E9F08FB7F894EC91E02BEC9324
:1001B0008FBFDF91CF911F910F9108958F7741F0FD
:1001C000813041F0823041F0833081F28FEFCECF29
:1001D00085E0CCCF82E0CACF84E0C8CF40DFDACF61
:1001E0008FB7F8949C91E02FE095E923EC938FBFB3
:1001F000E0CF61E084E0B3DF68EE73E080E090E0A0
:1002000085DF60E084E0ABDF68EE73E080E090E0E3
:100210007DDF60916000615F6093600070E090E05E
:1002200080E074DF0895CF93DF9388232CF190E072
:10023000FC01E05DFF4F2491865D9F4FFC0184919E
:10024000E82FF0E0882399F1CF01880F991FFC0176
:10025000E25EFF4FA591B491FC01EC5DFF4FC591AB
:10026000D4916623C9F0623029F18FB7F894EC91EC
:10027000E22BEC938FBF1BC08F7741F0813041F0B0
:10028000823041F0833099F28FEFD1CF85E0CFCF2C
:1002900082E0CDCF84E0CBCF9FB7F8948C91E22F52
:1002A000E0958E238C938881E823E8839FBFDF91BC
:1002B000CF9108959FB7F8943C91822F8095832326
:1002C0008C93E881E22BE8839FBFF1CF61E084E06B
:1002D000AADF0895E4DEFADF8CDFFECF1F920F92D3
:1002E0000FB60F9211242F933F938F939F93AF9349
:1002F000BF938091620090916300A0916400B091DF
:1003000065003091610026E0230F2D3758F50296E5
:10031000A11DB11D20936100809362009093630042
:10032000A0936400B093650080916600909167008F
:10033000A0916800B09169000196A11DB11D809344
:10034000660090936700A0936800B0936900BF9126
:10035000AF919F918F913F912F910F900FBE0F9072
:100360001F90189529E8230F0396A11DB11DD2CF28
:04037000F894FFCF2F
:00000001FF
