:100000000C94600B0C94940B0C94940B0C94940B28
:100010000C94940B0C94940B0C94940B0C94940BE4
:100020000C94940B0C94940B0C94632A0C94940BE6
:100030000C94940B0C94940B0C94CB2A0C94940B6E
:100040000C94C1290C94940B0C94312A0C940B2A17
:100050000C94940B0C94940B0C94940B0C94940BA4
:100060000C94940B0C94940B0000176D637500179F
:100070006E6F6C6F636B6269747300176E6F647779
:10008000656E00176E6F626F6F74727374006572C5
:100090006173656265666F72656C6F61640061743F
:1000A000657869740072616E6765737465707069F4
:1000B0006E670063616368696E67004C69766554BA
:1000C000657374730073696E676C65737465700033
:1000D000627265616B706F696E74730074696D65CF
:1000E000727300766572696679006F6E6C797768F5
:1000F000656E6C6F61646564006C6F61640072654D
:10010000736574006465627567776972650076650A
:100110007273696F6E00696E666F0068656C70005F
:100120004E51CA00202335363B3C4D54606162C3BA
:100130000041546D6567613634485645320041547C
:100140006D6567613332485642524556420041540C
:100150006D656761313648564252455642004154FA
:100160006D6567613332485642004E5100202122AE
:1001700023263536373B3C4D5460617AB9BCC8FE06
:100180000041546D65676131364856420041546DF7
:100190006567613136485641004E510020232635AF
:1001A00036373C4D5460617AC8E0E1E2E3FE00413D
:1001B000546D656761384856410041543930505795
:1001C0004D333136004154393050574D32313600BD
:1001D000515658590020222326292C38406C8283FE
:1001E00088004154393050574D31363100515658FE
:1001F0000020222326292C3840828388004154394C
:100200003050574D3831004154393050574D3342FA
:10021000004E5182ABC6CE0023292C35363C4D50C2
:100220006061667AC0CA004154393050574D32423D
:10023000004E51820023292C35363C4D50606166BA
:100240007A004154393050574D31004154393055BE
:100250005342313632004E517FCEF10023262935EC
:10026000363B3C4D5060616366D2E6EFF20041548C
:10027000393055534238320041546D656761363428
:100280004D310041546D65676133324D3100415449
:100290006D65676131364D310041546D656761367A
:1002A000344331004E5182D2002326292C35363C6E
:1002B0004D506061667ACBD9DCE00041546D6567D2
:1002C00061333243310041546D65676133325532D9
:1002D0000041546D65676131365532004E517FCE15
:1002E000F10023262935363B3C4D5060616366D2D0
:1002F000E6EFF20041546D656761385532004E51AA
:100300008292A2AEC6CE002326292C353637383944
:100310003B3C4D5060616465667AADBCC0C8DC0092
:1003200041546D65676133323850420041546D6508
:100330006761333238500041546D6567613332383C
:100340000041546D65676131363850420041546D4B
:10035000656761313638500041546D6567613136EB
:10036000380041546D656761383850420041546D22
:100370006567613838500041546D656761383800F1
:1003800041546D656761343850420041546D656772
:1003900061343850004E5182C60023262935363745
:1003A0003B3C4D50606164667ABCC00041546D6551
:1003B0006761343800404E730023464B4D575963F4
:1003C00064656670797A7C00415474696E7931365F
:1003D000333400415474696E793838004E518200CC
:1003E0002326292C2D2E3235363B3C4D506061643E
:1003F0006600415474696E793438004E5182C600EB
:1004000035363B3C4D7ABCBDC000415474696E79B1
:1004100038323800415474696E79313637004E51A4
:10042000D200202335363B3C4D506061667AB9BB23
:10043000CB00415474696E79383700415474696E49
:100440007938363100415474696E79343631004060
:1004500000262E30363941484A4E5157585A0041ED
:100460005474696E7932363100415474696E79384A
:100470003500415474696E793435004200282E30BD
:100480003641464F5154575A00415474696E79327F
:100490003500415474696E79383431004247809098
:1004A000B0C800252E3057585A8696A0A200415455
:1004B00074696E7934343100415474696E7938341A
:1004C00000415474696E7934340042470026282B69
:1004D0002E303639415157585A00415474696E795B
:1004E000323400470026282B2E30363941465157EA
:1004F000585A00415474696E79343355004154742C
:10050000696E7934333133002C3F465700282B2E47
:10051000303639414251585A00415474696E79322B
:10052000333133004E0026283641465157585A0081
:10053000415474696E79313300416D626967756F3A
:10054000757320276D6F6E69746F722720636F6DEE
:100550006D616E6420737472696E6700556E6B6EA8
:100560006F776E20276D6F6E69746F722720636FCF
:100570006D6D616E64004F4B004F4B004E6F2072EB
:10058000616E6765207374657070696E6700526193
:100590006E6765207374657070696E6720616C6C3E
:1005A0006F776564005374617920696E20646562B9
:1005B0007567574952452061742065786974004C0D
:1005C00065617665206465627567574952452061AB
:1005D0007420657869740053696E676C652D737457
:1005E000657070696E6720697320696E74657272D8
:1005F0007570742D736166650053696E676C652D47
:100600007374657070696E6720697320696E7465B4
:10061000727275707469626C65005665726966798C
:10062000696E6720666C617368206166746572200C
:100630006C6F6164004C6F6164206F7065726174EF
:10064000696F6E7320617265206E6F7420766572BB
:10065000696669656400457865637574696F6E20C5
:100660006973206F6E6C7920706F737369626C654B
:1006700020616674657220612070726576696F759D
:1006800073206C6F616420636F6D6D616E640045F3
:100690007865637574696F6E20697320616C77612A
:1006A000797320706F737369626C65005265616461
:1006B000696E67206265666F72652077726974691A
:1006C0006E67207768656E206C6F6164696E670085
:1006D0004E6F2072656164696E67206265666F7235
:1006E000652077726974696E67207768656E206C23
:1006F0006F6164696E67004F6E6C7920726561642A
:10070000696E672C20627574206E6F20666C617351
:1007100068696E670043616E6E6F74207265616315
:1007200074697661746520646562756757495245DE
:100730003A20446F206120726573746172740043C3
:10074000616E6E6F74206163746976617465206494
:1007500065627567574952450064772D6C696E6B09
:100760002076657273696F6E20362E302E31004E02
:100770006F20666174616C206572726F72206861AF
:1007800073206F636375726564004C6173742066D7
:100790006174616C206572726F723A20004E756DE3
:1007A000626572206F6620646562756757495245BD
:1007B0002074696D656F7574733A20000A4E756D0B
:1007C000626572206F6620666C617368207772695B
:1007D0007465206F7065726174696F6E7320736FDA
:1007E000206661723A2000646562756757697265B8
:1007F0002069732064697361626C6564006465627A
:1008000075675749524520626974726174653A2070
:100810000064656275675769726520697320656E4B
:1008200061626C6564005461726765743A200064AB
:10083000772D6C696E6B2076657273696F6E2036EA
:100840002E302E31006D6F6E69746F722076657276
:1008500073696F6E2020202020202020202020205F
:1008600020202D206669726D776172652076657231
:1008700073696F6E006D6F6E69746F72207665724A
:10088000696679205B657C645D2020202020202023
:1008900020202D2076657269667920666C61736808
:1008A000206166746572206C6F6164286529206F11
:1008B00072206E6F7420286429006D6F6E69746FEA
:1008C000722074696D657273205B667C725D202096
:1008D000202020202020202D2074696D6572732037
:1008E000667265657A65206F722072756E20776812
:1008F000656E2073746F70706564006D6F6E6974DF
:100900006F722073696E676C6573746570205B73BA
:100910007C695D20202020202D2073616665206F7A
:100920007220696E7465727275707469626C65208C
:1009300073696E676C652D7374657070696E67009E
:100940006D6F6E69746F72207265736574202020FC
:10095000202020202020202020202020202D207238
:100960006573657420746172676574006D6F6E697C
:10097000746F72206F6E6C797768656E6C6F6164EE
:100980006564205B657C645D202D20616C6C6F77F5
:100990002065786563206F6E6C792061667465727E
:1009A000206C6F616420286529206F7220616C774C
:1009B0006179732028642900202020202020202015
:1009C0002020202020202020202020202020202027
:1009D000202020202020206F72206F6E6C792072E2
:1009E0006561642066696C6520627574206E6F7441
:1009F00020666C61736820286F29006D6F6E6974C2
:100A00006F72206C6F6164205B727C777C6F5D20FD
:100A100020202020202020202D206C6F6164696E12
:100A2000673A2072656164206265666F726520773F
:100A300072697465287229206F72207772697465F3
:100A4000287729006D6F6E69746F7220696E666F0A
:100A50002020202020202020202020202020202096
:100A6000202D20696E666F726D6174696F6E2061F2
:100A7000626F75742074617267657420616E6420A2
:100A80006465627567676572006D6F6E69746F7219
:100A90002068656C7020202020202020202020202D
:100AA0002020202020202D2068656C702066756E27
:100AB0006374696F6E006D6F6E69746F7220646528
:100AC00062756777697265205B657C645D202020B4
:100AD0002020202D20656E61626C657320286529B9
:100AE000206F722064697361626C657320286429C9
:100AF00020646562756757495245006D6F6E697471
:100B00006F7220627265616B706F696E7473205BC7
:100B1000617C687C735D20202D20616C6C6F772078
:100B2000616C6C2C206F6E6C792068772C206F7252
:100B3000206F6E6C7920737720627073006D6F6E1A
:100B400069746F7220617465786974205B737C6C62
:100B50005D2020202020202020202D20737461790A
:100B600020696E2064656275675749524520287375
:100B700029206F72206C6561766520286C292061C0
:100B8000742065786974001B0116010E010401FED2
:100B900000F900EA00E300DC00D000C500BB00B3B0
:100BA00000A5009E008E0083007B006F006A006934
:100BB0000068004E6F7420696D706C656D656E74B1
:100BC0006564004D435520686173206265656E2041
:100BD0007265736574007141747461636865640063
:100BE0007173546872656164496E666F0071665412
:100BF0006872656164496E666F007143005061639D
:100C00006B657453697A653D393000715375707046
:100C10006F72746564007152636D642C0076436F6B
:100C20006E743B0076436F6E743F00764B696C6C5C
:100C3000007652756E0064772D6C696E6B362E30BF
:100C40002E3100556E6B6E6F776E20276D6F6E695B
:100C5000746F7227206F7074696F6E0054696D65D0
:100C600072732077696C6C2072756E207768656E80
:100C700020657865637574696F6E2069732073747D
:100C80006F707065640054696D6572732061726580
:100C90002066726F7A656E207768656E206578656C
:100CA000637574696F6E2069732073746F707065FB
:100CB00064002C464757002425282B2E3036394116
:100CC0004251585A00415474696E7932333133417C
:100CD000002A2A2A20506F7765722D646F776E2064
:100CE0007265636F676E697A65642E204170706CFF
:100CF0007920706F77657220616761696E21202AA3
:100D00002A2A002A2A2A20506C6561736520706F98
:100D10007765722D6379636C6520746172676574A1
:100D2000202A2A2A0064656275675749524520695E
:100D300073206E6F742079657420656E61626C65D6
:100D40006400646562756757495245206973206481
:100D5000697361626C6564006465627567574952C6
:100D60004520697320656E61626C65642C20627039
:100D7000733A2000436F6E6E656374656420746F10
:100D800020002A2A2A43616E6E6F7420636F6E6E94
:100D900065637420666F7220756E6B6E6F776E2060
:100DA000726561736F6E73002A2A2A4457454E207C
:100DB000636F756C64206E6F742062652070726F53
:100DC0006772616D6D6564002A2A2A4457454E207A
:100DD0006973206E6F74207365742C2062757420A3
:100DE0006E6F74206D616E61676564206279206446
:100DF000772D6C696E6B2E2043616E6E6F7420636D
:100E00006F6E74696E75652E002A2A2A4D4355202F
:100E10007479706520646F6573206E6F74206D61E6
:100E2000746368002A2A2A546172676574206E6FA1
:100E30007420706F7765726564206F72205245531D
:100E400045542073686F7274656E656420746F20FA
:100E5000474E44002A2A2A5245534554206C696E55
:100E600065206861732061206361706163697469E2
:100E70007665206C6F6164002A2A2A5043207769C6
:100E8000746820737475636B2D61742D6F6E6520AB
:100E900062697473002A2A2A424F4F5452535420D5
:100EA0006675736520636F756C64206E6F74206265
:100EB0006520636C6561726564002A2A2A4C6F6341
:100EC0006B206269747320617265207365742C20D5
:100ED000627574206E6F74206D616E616765642049
:100EE00062792064772D6C696E6B2E2043616E6E83
:100EF0006F7420636F6E74696E75652E002A2A2ADE
:100F00004C6F636B206269747320636F756C64202F
:100F10006E6F7420626520636C6561726564002A7F
:100F20002A2A556E737570706F72746564204D4314
:100F300055002A2A2A436F756C64206E6F742061F5
:100F40006374697661746520646562756757495298
:100F500045002A2A2A436F756C64206E6F742063E3
:100F60006F6D6D756E696361746520627920495398
:100F7000503B20636865636B20776972696E672AEE
:100F80002A2A00416C6C20627265616B706F696E19
:100F900074732061726520616C6C6F7765642C20BE
:100FA0006D6178696D756D3A20004F6E6C792068BF
:100FB0006172647761726520627265616B706F69DE
:100FC0006E74732C206D6178696D756D3A20004FD9
:100FD0006E6C7920736F66747761726520627265DA
:100FE000616B706F696E74732C206D6178696D75BB
:100FF0006D3A2000546172676574206F66666C6993
:101000006E653A2043616E6E6F742072657365740D
:1010100000456E61626C6520646562756757495270
:101020004520666972737400425245414B20696ED7
:10103000737472756374696F6E2E2043616E6E6F88
:101040007420636F6E74696E75652100546F6F2034
:101050006D616E7920616374697665206272656185
:101060006B706F696E747300537461636B206F767D
:101070006572666C6F77004E6F2070726F67726179
:101080006D206C6F61646564004E6F7420636F6ED9
:101090006E65637465640054585832303A58583B52
:1010A00032313A585858583B32323A5858585858B2
:1010B0005858583B7468726561643A313B002A2A7B
:1010C0002A466174616C20696E7465726E616C2071
:1010D0006465627567676572206572726F723A2027
:1010E000002A2A2A466174616C206465627567670C
:1010F0006572206572726F723A2000496C6C656788
:10110000616C20696E737472756374696F6E004EE2
:101110006F20636F6E6E656374696F6E20746F20ED
:101120007461726765740083828180A0A107900159
:101130000101012E100000001C0000010800003019
:101140000524050A91020102021F100000001C0084
:101150000001800000190508050A9102010202271A
:10116000100000001C000001800000C50CB20C0D36
:10117000920401040427200000001C0000018000EC
:1011800000FD04B20C0C92040101042720000000B1
:101190001C000001400000F304E3040B9102010273
:1011A0000227100000001C1F0001400000DA04CAE2
:1011B0000407920401040427200000001C1F000102
:1011C000400000C104CA040C93080108082720004D
:1011D00000001C1F0001400000B804CA041592045E
:1011E00000040427080100001C1F0001400000AE9D
:1011F000049C0415930800080827080100001C1F20
:10120000000140000092049C0408910201020222A5
:10121000100000001C1F000140000089047B040630
:10122000920401040422200000001C1F0001400061
:101230000072047B040B93080108082220000000C0
:101240001C1F000140000069047B040C9102010294
:101250000220100000001C1F00014000005F044F2E
:101260000408920401040420200000001C1F000157
:1012700040000045044F040D930801080820200099
:1012800000001C1F00014000003B044F048793082E
:1012900000080831400000001F2200014000003219
:1012A000041E0487940800081031400000001F222B
:1012B000000140000014041E0414930800040831C7
:1012C0002000800F1F2200014002010A04FB0309D5
:1012D000920400010431200000001F2200014000A0
:1012E00000F203DC03119308000108312000000024
:1012F0001F220001400000D303DC031294100004FD
:10130000102E100100001C000001400000C803B5B1
:101310000305920800040431200000001F2201018F
:10132000400000AC0395030A920800040431200039
:1013300000001F2201014000008B0395031092085A
:1013400000040431200000001F2201014000008041
:101350000395030A9310000808312000800F1F2214
:101360000101400201770395030F93100008083133
:101370002000800F1F2201014002016D039503161A
:101380009310000808312000800F1F220101400245
:101390000162039503069410000810314000801F7D
:1013A0001F220101400201580395030B941000080D
:1013B00010314000801F1F2201014002014D0395A2
:1013C00003159410000810314000801F1F220101F6
:1013D0004002014103950314952000102031400084
:1013E000003F1F220101400101370395030F9520A3
:1013F000001020314000003F1F2201014001012C5C
:10140000039503169520001020314000003F1F2255
:1014100001014001012003FE028993080008083100
:10142000200000001F220101800101F402DC02897A
:10143000940800081031400000001F2201018001C3
:1014400001D102DC028A951000102031400000001A
:101450001F220101800101C602DC028695200010D6
:1014600020314000003F1F220101400101BB02A4C6
:1014700002869640002040318000007F1F2201013B
:101480004001019902A40284941000081031400028
:10149000001F1F2201014001018E02A40284952039
:1014A000001020314000003F1F2201014001018354
:1014B00002A402849640002040318000007F1F2259
:1014C00001014001017802A402829308000808315A
:1014D0004000001E1F2201018001016E025602829F
:1014E0009408000810314000003E1F2201018001D5
:1014F000014B025602839308000808312000800F38
:101500001F220101400201420231028393080008B8
:1015100008312000800F1F22010140020127021123
:1015200002839308000808312000800F1F22010168
:1015300040020107021102889304000808312000CC
:10154000800F1C1F0101400101FD01ED018B941072
:10155000000810314000001F1C1F0101400101E282
:1015600001D001839410000810314000001F1F2299
:101570000101400201C501110283941000081031DD
:101580004000001F1F220101400201BA0111021098
:10159000930800040831400000001C1F01001000E7
:1015A00000AF0199010C94080004103140000000C4
:1015B0001C1F01001000008D0199010D94100008FE
:1015C00010314000001F1C1F010108010181016A48
:1015D00001109520001020314000003F1C1F010128
:1015E0000801015E016A010D9410000810314000ED
:1015F000001F1C1F01010801014E016A0110952006
:10160000001020314000003F1C1F01010801013E75
:10161000016A01109640001040314000007F1C1FFD
:10162000010108010131012001000000000000005B
:101630000000000000000000000000000000002A80
:101640002A2A20466174616C20696E7465726E612D
:101650006C206572726F723A200000000000240056
:1016600027002A0000000000250028002B000000B1
:1016700000002300260029000404040404040404D8
:10168000020202020202030303030303010204082D
:1016900010204080010204081020010204081020DC
:1016A0000000000800020100000304070000000021
:1016B00000000000556E6B6E6F776E00512E913AF0
:1016C00011241FBECFEFD8E0DEBFCDBF14BE0FB6D2
:1016D000F894A895809160008861809360001092D2
:1016E00060000FBE11E0A0E0B1E0E8E3F7E702C060
:1016F00005900D92A438B107D9F727E0A4E8B1E02E
:1017000001C01D92A130B207E1F71BE0CFE5DBE09D
:1017100004C02197FE010E94333BCE35D107C9F7A3
:101720000E949B2E0C948F3B0C94192B0F931F93AC
:10173000CF93DF939B01AC01C6E5D6E0E889F98938
:1017400082E08083EC85FD8510820E851F8560E038
:1017500079E08DE390E00E94F23A2150310941098D
:1017600051095695479537952795F8012083188E8E
:10177000EC89FD8986E08083EA89FB89808180612C
:101780008083EA89FB89808188608083EA89FB897C
:10179000808180688083EA89FB8980818F7D808356
:1017A000DF91CF911F910F910895833081F028F43C
:1017B000813099F08230A9F008958730A9F08830FF
:1017C000C9F08430B1F4809180008F7D03C0809196
:1017D00080008F7780938000089584B58F7784BDD3
:1017E000089584B58F7DFBCF8091B0008F77809373
:1017F000B00008958091B0008F7DF9CFCF93DF9333
:10180000282F30E0F901E056F94E8491F901E457B0
:10181000F94ED491F901E858F94EC491CC23A1F0C6
:1018200081110E94D50BEC2FF0E0EE0FFF1FE25963
:10183000F94EA591B491EC91ED2381E090E009F48B
:1018400080E0DF91CF91089580E090E0FACF1F9380
:10185000CF93DF93282F30E0F901E056F94E8491C1
:10186000F901E457F94ED491F901E858F94EC491C1
:10187000CC23A9F0162F81110E94D50BEC2FF0E09C
:10188000EE0FFF1FEC59F94EA591B4918FB7F89464
:10189000EC91111108C0D095DE23DC938FBFDF914E
:1018A000CF911F910895DE2BF8CFCF93DF9390E077
:1018B000FC01E457F94E24918858994EFC0184911B
:1018C0008823C9F090E0880F991FFC01E65AF94E71
:1018D000A591B491FC01EC59F94EC591D4916111D7
:1018E0000DC09FB7F8948C91209582238C938881AA
:1018F000282328839FBFDF91CF910895623051F450
:101900009FB7F8943C91822F809583238C93E88134
:101910002E2BEFCF8FB7F894EC912E2B2C938FBFFB
:10192000EACFAF92BF92CF92DF92EF92FF920F93E6
:101930001F93CF93DF936C017B018B01040F151F65
:10194000EB015E01AE18BF08C017D10759F06991CD
:10195000D601ED91FC910190F081E02DC601099531
:10196000892B79F7C501DF91CF911F910F91FF90DE
:10197000EF90DF90CF90BF90AF900895FC01538D12
:10198000448D252F30E0842F90E0821B930B541759
:1019900010F0CF96089501970895FC01918D828DE6
:1019A000981761F0A28DAE0FBF2FB11D5D968C917F
:1019B000928D9F5F9F73928F90E008958FEF9FEFBE
:1019C0000895FC01918D828D981731F0828DE80F7A
:1019D000F11D858D90E008958FEF9FEF0895FC0134
:1019E000918D228D892F90E0805C9F4F821B910901
:1019F0008F7399270895FC01A48DA80FB92FB11DED
:101A0000A35ABF4F2C91848D90E001968F73992734
:101A1000848FA689B7892C93A089B1898C91837012
:101A200080648C93938D848D981306C00288F3890B
:101A3000E02D80818F7D80830895EF92FF920F9338
:101A40001F93CF93DF93EC0181E0888F9B8D8C8D6A
:101A500098131AC0E889F989808185FF15C09FB75E
:101A6000F894EE89FF896083E889F9898081837021
:101A7000806480839FBF81E090E0DF91CF911F91D0
:101A80000F91FF90EF900895F62E0B8D10E00F5FF1
:101A90001F4F0F731127E02E8C8D8E110CC00FB6C7
:101AA00007FCFACFE889F989808185FFF5CFCE015F
:101AB0000E94FB0CF1CFEB8DEC0FFD2FF11DE35AD3
:101AC000FF4FF0829FB7F8940B8FEA89FB898081E2
:101AD0008062CFCF682F86E596E00C941D0DCF93E2
:101AE000DF93EC01888D8823B9F0AA89BB89E88946
:101AF000F9898C9185FD03C0808186FD0DC00FB6EC
:101B000007FCF7CF8C9185FFF2CF808185FFEDCF69
:101B1000CE010E94FB0CE9CFDF91CF91089586E5BD
:101B200096E00E946F0DE6E5F6E0A289B3898C91FC
:101B30008F7E8C93A289B3898C91877F8C93A289A5
:101B4000B3898C918F778C93A289B3898C918F7D87
:101B50008C93828D818F08958091CA01809381003A
:101B6000B59AEFE6F0E080818062808308954F921D
:101B70005F926F927F928F929F92AF92BF92CF921D
:101B8000DF92EF92FF929B01AC0160E070E18EE585
:101B90009FE50E94143B69017A0181E08093CB01AB
:101BA00080915506809354061092CC0181E021E883
:101BB000C2162AE1D20626E0E206F104B0F0DA010C
:101BC000C60136E0B695A795979587953A95D1F7D2
:101BD00081382AE1920726E0A207B10508F44AC03D
:101BE000CD2CDE2CEF2CFF2484E0982F906890936E
:101BF000CA01982F906C9093C90188608093C801A6
:101C00002601370182E3480E511C611C711C84E6D9
:101C1000882E912CA12CB12CC301B201A5019401F5
:101C20000E94F23A3093C7012093C601F694E794DC
:101C3000D794C794C701B601640D751D861D971D05
:101C4000A50194010E94F23A3093C5012093C4018A
:101C50001092800010928200FF90EF90DF90CF9062
:101C6000BF90AF909F908F907F906F905F904F90BC
:101C70000C94AC0D6C017D0183E0B7CF90915506BB
:101C800080915406981741F0E0915506F0E0EC572A
:101C9000FE4F808190E008958FEF9FEF08950895A3
:101CA000809155062091540690E0805C9F4F821BE6
:101CB00091098F7399270895909155068091540644
:101CC000981789F0E0915506F0E0EC57FE4F8081BF
:101CD0002091550630E02F5F3F4F2F73332720931D
:101CE000550690E008958FEF9FEF089561E082E040
:101CF0000E94550C60E082E00C94270C86E596E08B
:101D00000E94EF0C892BD1F386E596E00E94CD0C62
:101D10000895CF93C82F0E947E0E803271F484E123
:101D200090E00E946A0D8C2FCC0F990B0E946A0DD7
:101D300080E190E0CF910C946A0D85E190E0FACFBC
:101D40000E947E0E803241F484E190E00E946A0D90
:101D500080E190E00C946A0D85E190E0FBCF0F9359
:101D60001F93CF93DF938C01CFEAD5E0CE018F5A3A
:101D700095408017910724F40E947E0E8993F6CF38
:101D8000DF91CF911F910F9108958A3010F0895AF9
:101D90000895805D08954DE251E19A012D5231413F
:101DA000FA01659174916115710509F4B0C04A5E3C
:101DB0005F4F6817790789F790938F0580938E0599
:101DC000F901E15DFE4EE49180E4E89FF001112409
:101DD000F0939205E0939105F901E05DFE4EE491E8
:101DE00080E690E0E11102C080E091E090939405DC
:101DF00080939305F901EF5CFE4EE49180E4E89F47
:101E0000F0011124F0939605E0939505F901EE5C3D
:101E1000FE4EE491EE0FEE0F10929705E0939805B9
:101E2000F901ED5CFE4EE491E0939905F901EC5C5B
:101E3000FE4E849190E0880F991F90939B058093AC
:101E40009A05F901EB5CFE4E549141E0511101C03D
:101E500040E040939C05F901EA5CFE4E6591749167
:101E600070939E0560939D05F901E85CFE4E4491D8
:101E700040939F05F901E75CFE4EE491E093A005D5
:101E8000F901E65CFE4EE49161E0E11101C060E021
:101E900060939005F901E55CFE4EE491E093A505A1
:101EA000F901E45CFE4EE491E093A605F901E35CE0
:101EB000FE4EE491E093A705F901E25CFE4EE49149
:101EC000E093A805F901E15CFE4E65917491709371
:101ED000A2056093A1052F5B3E4EF9012591349137
:101EE0003093A4052093A30522E0240F2093AB0593
:101EF0004F5F4093AA05552321F0880F991F880F43
:101F0000991F9093AD058093AC0581E0089580E022
:101F10000895CF93C0E084EF96E00E94500E892B85
:101F200031F084EF96E00E945C0EC82FF4CF8C2F26
:101F3000CF910895E7E7F5E080E282938150E9F7D9
:101F400010925605109251051092500584E392E1CB
:101F5000909353058093520580917705816080931B
:101F600077050895682F86E596E00C941D0DEF9295
:101F7000FF921F93CF93DF93182FF92E86E596E0FB
:101F80000E94EF0C892BB9F484E20E94B20FC12F9A
:101F9000DF2D10E08FEAE82E85E0F82E1C161D06D6
:101FA000B4F4F70180810E94B20FF70181917F01A3
:101FB000180F2197F3CF86E596E00E94E10C039776
:101FC00019F7DF91CF911F91FF90EF90089583E271
:101FD0000E94B20F812F82958F700E94C50E0E94C1
:101FE000B20F812F8F700E94C50EDF91CF911F918C
:101FF000FF90EF900C94B20F2F923F924F925F920E
:102000006F927F928F929F92AF92BF92CF92DF9208
:10201000EF92FF920F931F93CF93DF93CDB7DEB76D
:102020002A970FB6F894DEBF0FBECDBF2A013B0141
:1020300010E000E0222329F02FE42093AF0501E017
:1020400010E06C01F6019490E92CF12CE114F104FC
:1020500009F495C0003A1105BCF45801F2E0AF0E46
:10206000B11CC70164E0959587956A95E1F70E94D8
:10207000C50E01551A4FF8018083892D8F700E947B
:10208000C50EF801818385012FEFC21AD20ADACF7B
:102090001C014AE0842E912CA12CB12C9FEFE91A4F
:1020A000F90AC301B201A50194010E94143B605DCD
:1020B000F10161931F0129013A01411451046104A6
:1020C000710461F76CC0FEEF4F16FFEF5F066F06FD
:1020D0007F0671F5E090A105F090A205E114F104EE
:1020E00021F434EBE32E36E1F32EF701B4908B2D7F
:1020F00090E00097E9F0003A1105B4F46801F2E0CD
:10210000CF0ED11C24E0959587952A95E1F70E9482
:10211000C50E01551A4FF80180838B2D8F700E94D8
:10212000C50EF801818386012FEFE21AF20ADDCF96
:10213000F801E155FA4F80E38083C801029621E45B
:102140002183FC01E155FA4F10822A960FB6F894CC
:10215000DEBF0FBECDBFDF91CF911F910F91FF90DA
:10216000EF90DF90CF90BF90AF909F908F907F9037
:102170006F905F904F903F902F900C94B70F77FC2B
:10218000A2CFCE0101966C01411451046104710487
:1021900009F07ECF80E38983EE24E394F12CF601ED
:1021A000EE0DFF1D1082F6017F01EC18FD088191F4
:1021B0008111FACFF1E0EF1AF10808F4B9CF003A33
:1021C0001105C4F7580182E0A80EB11CF601EE0D0E
:1021D000FF1D7080872D82958F700E94C50E01555E
:1021E0001A4FF8018083872D8F700E94C50EF80169
:1021F00081838501DFCF21E00C94FC0F20E00C945B
:10220000FC0F20915405309155052130310531F0F6
:102210002350310981E02330310508F480E008952E
:10222000AC0180917B028823D9F0EBEDF1E030E046
:1022300020E065E0C901A181B2814A175B0751F432
:10224000629FD001639FB00D1124A552BE4F7C91B7
:1022500070FD08C02F5F3F4F35962032310551F792
:102260008FEF9FEF08959C012F703C7F211530491F
:1022700049F09C012C703E7F81E02C30344919F0EC
:1022800080E0089581E0089540912B0580912C0510
:1022900080FF07C050E070E060E08FEC9FE00C949E
:1022A000FE10413039F441E050E060E070E08AEA2D
:1022B0009FE0F5CF50E070E060E083E89FE0EFCF73
:1022C0008091A1059091A205845B964139F44FEF6E
:1022D0005FEFBA0185E29DE00C94FE104EEF5FEFD8
:1022E0006FEF7FEF84E79DE00E94FB100E940111D9
:1022F00081110BC0409178055091790560917A0564
:1023000070917B0588E59DE0E7CF4FEF5FEFBA0165
:1023100082E49DE0E1CF80912A054FEF5FEFBA01A3
:102320008F3D21F48CE59CE00C94FE1086E89CE047
:10233000FBCF4FEF5FEFBA0183E49CE00C94FE10FB
:102340000F931F93CF93DF93209154053091550540
:102350002230310521F420914605211135C020910C
:102360006E002D7F20936E00909355058093540549
:10237000880F991FFC01EE5EFE4F008111811093C2
:10238000DA010093D9018E5F9E4FFC01C081D1819B
:10239000D093D801C093D70161E087E00E94550C2B
:1023A00060E0012B19F0CD2B41F461E087E0DF9173
:1023B000CF911F910F910C94270C80E887BD8091DD
:1023C0006E00826080936E00DF91CF911F910F911C
:1023D0000895CF939091460591110DC0C82F843672
:1023E00040F0482F50E070E060E08FE396E10E94FB
:1023F000FB10C093460582E090E0CF910C94A011B1
:10240000CF93C82FE82FF92FED30F10508F05EC00B
:10241000E45FFD4E0C94333B6C12191224122A1205
:10242000301236123C12421248124E1254126012EE
:102430005A124FEF5FEFBA0182E59FE00E94FB1056
:102440008C2FCF910C94E9114FEF5FEFBA0182E32B
:102450009FE0F4CF4FEF5FEFBA018FE19FE0EECF47
:102460004FEF5FEFBA018DEF9EE0E8CF4FEF5FEFE8
:10247000BA018AEB9EE0E2CF4FEF5FEFBA0185E948
:102480009EE0DCCF4FEF5FEFBA0188E79EE0D6CF4A
:102490004FEF5FEFBA0184E59EE0D0CF4FEF5FEFE3
:1024A000BA0184E29EE0CACF4FEF5FEFBA0189E044
:1024B0009EE0C4CF4FEF5FEFBA0188EC9DE0BECF46
:1024C0004FEF5FEFBA0188EA9DE0B8CF4FEF5FEFC3
:1024D000BA0182E89DE0B2CFCF910895CF93DF9308
:1024E00081E080939304E7E7F5E08081877F806156
:1024F000808310927C0210927B02CFEFDFEFD093AB
:102500000101C09300011092830210929002109278
:102510008502109284021092460590E080E00E94AD
:10252000A0110E949A0F84EB96E19093A2058093EC
:10253000A105EDE7F2E011821082D583C483DF911B
:10254000CF9108958091D10180936E008091D00148
:102550008093C1000895EEE6F0E080818093D10180
:102560001082E1ECF0E080818093D0018081887F4F
:10257000808308950E948F0D88E198E00FB6F8944B
:10258000A895809360000FBE90936000FFCF90E00D
:1025900080E00895CF92DF92EF92FF926FB7F894A8
:1025A00080916F008F7D80936F001092800081E892
:1025B0008093810010928200B59AB09A20EA3BEB9A
:1025C0004DE050E0B5990AC021153105410551058E
:1025D00029F02150310941095109F4CF10928500A9
:1025E00010928400211531054105510541F46FBF5A
:1025F000CA01B901FF90EF90DF90CF900895B59A8E
:10260000B09A80EA96E8A1E0B0E0C12CD12C760126
:1026100031E0B5990BC0B09909C00097A105B1058B
:10262000D1F56FBF20E030E0A901E2CF0097A1050E
:10263000B105B9F3B59B0FC0B59A3F5F8091860095
:10264000909187008130904F10F0353061F080EA32
:1026500096E8A1E0B0E0B09B04C02FEFE21AF20AC6
:10266000B09A3530B1F680918600909187006FBFA7
:10267000B0E0A0E09C01AD01245F3F4F4F4F5F4FA2
:102680002C0D3D1D4E1D5F1D60E070E281EA97E05C
:102690000E94F23AADCF0197A109B109BACFFC016E
:1026A0004FB780916F008F7D80936F0010928000F4
:1026B000109282008091C801809381008091C601B0
:1026C0009091C70101979093890080938800F894B6
:1026D0001092850010928400B19A8091CB018823DA
:1026E000E9F01092CB012091C6013091C701220F71
:1026F000331F3093890020938800B19BFECF209137
:10270000C6013091C70121503109309389002093CF
:1027100088001092850010928400B19A8091F3068F
:10272000109285001092840081112AC0209A98E0AE
:10273000B19BFECF262F30E060FF20C02098B19AD9
:10274000B90175956795915099F7B19BFECF209887
:102750008485882351F08091C6019091C701969598
:1027600087959093890080938800B19A4FBF0E940B
:10277000AC0DB19BFECF81E090E00895209ADFCFB1
:10278000299898E0B19BFECF262F30E060FF0BC068
:10279000299AB19AB90175956795915099F7B19BAE
:1027A000FECF299AD5CF2998F4CF9F92AF92BF92AE
:1027B000CF92DF92EF92FF920F931F93CF93DF930D
:1027C000D82FC92FD62EC42E86E596E00E946F0D15
:1027D0000D2F1C2FD0E0C0E0ED2CF12C570181E033
:1027E000A81AB10899249394AC16BD0619F4C11027
:1027F00090920007F80161918F0184EF96E00E94AA
:102800004F132196CD1580F310920007C701DF9179
:10281000CF911F910F91FF90EF90DF90CF90BF90DD
:10282000AF909F900895CF93DF9300D01F92CDB7C4
:10283000DEB720ED29832091AE05920F9A838B831A
:1028400040E063E0CE0101960E94D5130F900F90F7
:102850000F90DF91CF910895CF93DF93CDB7DEB77F
:1028600066970FB6F894DEBF0FBECDBF50ED5A830A
:102870002EE12C8341ED4D8320E22F8332EC38870B
:1028800075E079872A875D8751E05F87488B43E051
:102890004A8B3B8B34E03C8B2D8B20912A0526768E
:1028A00029832091AE052B832E838B879C872E87CF
:1028B000298B6E8B0E94890F40E066E1CE01019664
:1028C0000E94D51366960FB6F894DEBF0FBECDBF3B
:1028D000DF91CF910895CF93DF9300D000D000D047
:1028E000CDB7DEB792ED9A8393E29D8390912A054E
:1028F0009476998390919905392F3695369536952A
:102900003670282F22952F70232B20552B839F70F4
:102910008295807F980F9C836E8340E066E0CE01B5
:1029200001960E94D51326960FB6F894DEBF0FBE0F
:10293000CDBFDF91CF910895CF92DF92EF92FF92BA
:10294000CF93DF931F92CDB7DEB70E94AB120E94E8
:10295000CA126B017C0125E0C216D104E104F10426
:1029600060F4109278051092790510927A05109211
:102970007B050E94A21280E025C02091780530914D
:10298000790540917A0550917B052C193D094E0936
:102990005F0957FF07C050954095309521953F4FEF
:1029A0004F4F5F4FA4E6B0E00E94393BA70196016C
:1029B0000E94F23A223031054105510558F40E9437
:1029C000A21281E00F90DF91CF91FF90EF90DF9006
:1029D000CF900895C701B6010E94B70D84E090E042
:1029E000E82FB701A601082E04C0440F551F661F2B
:1029F000771F0A94D2F7413F59446240710518F09D
:102A0000019771F7E0E00E2E000CFF0BE95DFE4E22
:102A1000E491E98341E061E0CE0101960E94D51383
:102A20000E94CA12609378057093790580937A05A5
:102A300090937B050E94A2126091780570917905B0
:102A400080917A0590917B05663471058105910529
:102A500008F491CF0E94B70DB4CFCF92DF92EF92DE
:102A6000FF9280EEC82E83E9D82E84E0E82EF12C68
:102A700084EF96E00E94500E892B59F4C114D104C2
:102A8000E104F104B1F081E0C81AD108E108F108CD
:102A9000EFCFCD28CE28CF2861F084EF96E00E94BA
:102AA0005C0E811106C0FF90EF90DF90CF900C94E8
:102AB0009C1480E0FF90EF90DF90CF9008950F93EB
:102AC0001F93CF93DF93182F062F86E596E00E9481
:102AD0006F0DC4EFD6E00C87612FCE010E944F131B
:102AE0001C8681E090E0DF91CF911F910F910895B6
:102AF000EFE6F0E080818F7D8083209A2FEF87E8DA
:102B000093E1215080409040E1F700C00000209800
:102B10000895CF93C82F0E94011181110FC00E9408
:102B200078150E949C14811105C090E080E0CF913F
:102B30000C94A0118C2FCF910C94E911CF91089592
:102B40008F929F92AF92BF92EF92FF920F931F933B
:102B5000CF93DF937C018B018091CC01882329F0F6
:102B60001092CC0187E70E948915812C912C540189
:102B7000D0E0C0E084EF96E00E94500E892BA9F0CF
:102B800084EF96E00E945C0E9E012F5F3F4FCE0DBA
:102B9000DF1D88830115110519F020173107F9F0A1
:102BA000E90180E090E0DC0102C0D501C4014C01E4
:102BB0005D012FEF821A920AA20AB20A80329E4465
:102BC000A105B105B8F2CE01DF91CF911F910F9110
:102BD000FF90EF90BF90AF909F908F900895E80185
:102BE000F2CFEF92FF920F931F93CF93DF93CDB766
:102BF000DEB764970FB6F894DEBF0FBECDBF7B0182
:102C00008A01440F551F188A1F8660ED6A832EE1E2
:102C10002C8331ED3D8370E27F8322EC2887E5E051
:102C2000E9877A876D87388B2B8B22E02C8B20915C
:102C30002A05267629832091AE052B832E838B8748
:102C40009C872E87250F298B4A8B0E94890F40E095
:102C500064E1CE0101960E94D5130E94AB1261E09F
:102C600080E20E945F15B801C7010E94A0157C0197
:102C70000E94A2120E151F0519F08BE60E948915FD
:102C800064960FB6F894DEBF0FBECDBFDF91CF9133
:102C90001F910F91FF90EF9008950F931F93CF9383
:102CA000DF9300D0CDB7DEB7182F092F80FF03C008
:102CB00084E70E94E91142E050E0BE016F5F7F4F60
:102CC000812F902F0E94F1158A8190E0982F8827FC
:102CD0002981820F911D0F900F90DF91CF911F914D
:102CE0000F910895EF92FF920F931F93CF93DF936D
:102CF000EC018B017A01FB0111821082FA01118231
:102D000010820E94101197FD0BC025E0289FF00152
:102D1000299FF00D1124E552FE4F808182FD1EC0D7
:102D2000CE01880F991F0E944D16F8019183808370
:102D3000808191810E943311882349F0CE01019650
:102D4000880F991F0E944D16F70191838083DF91B0
:102D5000CF911F910F91FF90EF90089583819481FF
:102D6000E4CFCF93DF934091AC055091AD0522277E
:102D70003327241B350B282339232817390729F03B
:102D80008AE6DF91CF910C94E911209190022223E1
:102D900039F020918E0230918F022817390761F0A7
:102DA000EC0161E972E00E94F115D0938F02C093AB
:102DB0008E0281E080939002DF91CF9108950F936E
:102DC0001F93CF93DF93CDB7DEB729970FB6F89453
:102DD000DEBF0FBECDBF198692ED9A8323E22D830D
:102DE0009E8390912A059476998396EB9B838F70AE
:102DF0008C8390919905892F869586958695867006
:102E000088548F839F7098870E94890F40E068E004
:102E1000CE0101960E94D5130E94AB1261E083E2BD
:102E20000E945F1561E070E0CE0109960E94A01536
:102E30008C010E94A2120130110519F08CE70E944A
:102E40008915898529960FB6F894DEBF0FBECDBFD0
:102E5000DF91CF911F910F910895FF920F931F93D0
:102E6000CF93DF9300D000D01F92CDB7DEB7F62E00
:102E70001D8292ED9A8390912A0594769983909180
:102E80009905392F3695369536953670282F229527
:102E90002F70232B28542B839F708295807F980F4F
:102EA0009C830E94890F40E064E0CE0101960E945D
:102EB000D5130E94AB1261E083E20E945F1561E0CE
:102EC00070E0CE0105960E94A0158C010E94A2120E
:102ED000FF2081F081E00130110509F080E00F90C2
:102EE0000F900F900F900F90DF91CF911F910F9146
:102EF000FF9008950130110519F08BE70E948915A4
:102F00008D81EDCFCF93DF9300D000D01F92CDB74E
:102F1000DEB782ED8A8383E28D8380912A058476F1
:102F2000898387EB8B8387EE8C830E94890F40E037
:102F300065E0CE0101960E94D51360E08EE10E940B
:102F40002D170F900F900F900F900F90DF91CF9152
:102F500008950F931F93CF93DF9300D01F92CDB7A7
:102F6000DEB78B830E94890F0E94AB1241E061E0C3
:102F7000CE0103960E94D51362E070E0CE01019667
:102F80000E94A0158C010E94A2120230110519F0B6
:102F90008AE70E948915898190E0982F88272A81E5
:102FA000820F911D0F900F900F90DF91CF911F9185
:102FB0000F9108951092AE0580EF0E94A9172091FD
:102FC0009705309198053695279528173907A0F46D
:102FD00080918E0590918F05853022E9920719F036
:102FE0008A30934931F487E090E00E94001281E03A
:102FF000089588E090E0F9CF80E00895CF9361E0F4
:1030000087E00E945F150E942D15C82F811103C013
:1030100089E60E9489158C2FCF910895CF93C82FF0
:103020008091540590915505892B49F44FEF5FEF3E
:10303000BA0181E190E1CC2369F080E013C00E94E5
:103040000111882351F0C111F8CF4FEF5FEFBA01A2
:1030500084EF9FE00E94FE10F0CF0E94FE170E94B6
:103060009A0F81E0CF9108950F931F93CF93DF9331
:10307000CDB7DEB729970FB6F894DEBF0FBECDBF30
:103080008091770580FD6EC080EF0E94A917409166
:10309000AE05242F30E0322F222720953095822351
:1030A0009323019790935105809350051B821C82B6
:1030B0001D8280ED8A8381ED8D8380E28F8382EC97
:1030C000888781E0898780912A05867689834B836A
:1030D0004E830E94890F40E069E0CE0101960E9474
:1030E000D5130E94AB1261E080E20E945F1560E29E
:1030F00070E087E595E00E94A0158C010E94A21265
:103100000032110519F08BE70E9489158FE30E94A8
:10311000DF16809356058DE30E94DF1690E09093B2
:1031200053058093520580919105909192052091CD
:10313000930530919405820F931F8F3F910569F09D
:1031400060F08EE30E94DF16209152053091530506
:10315000382B309353052093520580917705816079
:103160008093770529960FB6F894DEBF0FBECDBFCA
:10317000DF91CF911F910F91089560E088E00E9448
:10318000550C8FE39CE90197F1F700C00000109205
:1031900078051092790510927A0510927B050E94AD
:1031A00078159AE69A95F1F700C088E00E94FE0B28
:1031B000892B11F00C949C1488E090E00E9400127E
:1031C00080E00895CF930E94BD18C82F882359F03E
:1031D00083EF0E94A91720918E0530918F05232B34
:1031E00011F40E94CB0E8C2FCF910895809177051A
:1031F00060E081FF1DC08AE00E94550C60E08BE01A
:103200000E94550C60E08BE00E94270C60E084E097
:103210000E94550C60E08CE00E94550C8FE39CE905
:103220000197F1F700C0000060E088E00C94550CB5
:103230008DE00E94550C60E08DE00E94270CDECFEF
:1032400020917C0530917D058823B1F02230310535
:1032500029F482E08A95F1F700C008952130310504
:1032600021F49AE69A95F1F7F7CF8FEE9AE001975D
:10327000F1F700C00000089522303105E1F321305C
:10328000310521F490E59A95F1F708958FE599E0DD
:103290000197F1F7EECF1F93CF93DF93162FC82F2F
:1032A000D8E0809139059091770591FF3DC0E0917C
:1032B0003A05F0913B059081C7FF34C08095892382
:1032C0008083E0913705F091380590818091360533
:1032D000809589238083812F0E942019CC0FE09153
:1032E0002F05F0913005808190912E05892391E082
:1032F00009F490E0C90F8091770581FF2AC0E09121
:103300003705F0913805808190913605892B8083AF
:10331000812F0E942019D15021F68C2FDF91CF915F
:103320001F910895892BCCCFE0913405F09135059C
:103330009081C7FF0BC0892B8083E0913205F0910B
:103340003305808190913105892BC4CF80958923E5
:10335000F3CFE0913205F0913305908180913105F2
:1033600080958923D4CF0F931F93CF93DF93162F8C
:10337000D42FC22F602F0E944B19602F812F0E94E3
:103380004B19602F8D2F0E944B19D82F002341F02D
:1033900061E08C2FDF91CF911F910F910C944B190D
:1033A00060E08C2F0E944B198D2FDF91CF911F91E0
:1033B0000F9108950F9301E020E040E060E088E580
:1033C0000E94B31991E08F3F09F490E0892F0F918B
:1033D0000895CF92DF92EF92FF920F931F93CF93B6
:1033E000DF936C01C62FE42E01E020E040E060E0B6
:1033F00080E50E94B319182F20E040E068E088E5DE
:103400000E94B319F82E20E040E068E080E50E94B9
:10341000B319D82F81E0C816D10409F45CC008F4B0
:1034200053C082E0C816D10409F45BC001E0212F2B
:1034300040E060EA8CEA0E94B3198FE59AEE0197AA
:10344000F1F700C0000020E040E060E080E50E946D
:10345000B319C1E08113C0E001E02D2F40E064EA20
:103460008CEA0E94B3198FE59AEE0197F1F700C03C
:10347000000020E040E068E080E50E94B31991E0A0
:103480008D1390E0C92301E02F2D40E068EA8CEA1B
:103490000E94B3198FE59AEE0197F1F700C0000082
:1034A00020E040E068E088E50E94B31991E08F11C8
:1034B00090E0892F8C23DF91CF911F910F91FF9086
:1034C000EF90DF90CF9008954C2F409514234C2F10
:1034D0004E21142BABCF8C2F8095F822CE21FC2AC5
:1034E000A5CF8C2F8095D823CE21DC2B9FCF0F9397
:1034F000CF93DF9301E020E040E060E080E30E94B2
:10350000B3198E31B9F420E041E060E080E30E941D
:10351000B319C82FD0E0DC2FCC2720E042E060E0D8
:1035200080E30E94B3199E01282BC901DF91CF913E
:103530000F91089590E080E0F9CFEF92FF920F9302
:10354000CF9382E090E090937D0580937C05C6E068
:10355000EE24E394F12C8091770581FF0EC061E0A9
:1035600084E00E94550C60E084E00E94270C87EC08
:1035700090E00197F1F700C0000061E088E00E9450
:10358000550C60E088E00E94270C87EC90E00197E2
:10359000F1F700C000008091770561E081FF50C025
:1035A0008AE00E94550C60E08AE00E94270C60E0EF
:1035B0008BE00E94550C60E08BE00E94270C95E3A5
:1035C0009A95F1F7000060E08CE00E94550C60E0F5
:1035D00088E00E94550C8FE599E00197F1F700C053
:1035E000000061E088E00E94550C9FE728E381E03D
:1035F000915020408040E1F700C0000000E020E052
:1036000040E063E58CEA0E94B319833549F1C1506B
:1036100041F40E94F61880E0CF910F91FF90EF9057
:103620000895C53009F497CFC33028F0F0927D0596
:10363000E0927C0590CF10927D0510927C058BCF97
:103640008DE00E94550C60E08DE00E94270C61E047
:103650008BE00E94550C61E08BE00E94270CB3CFF9
:103660008FE59AEE0197F1F700C0000081E0D4CF1A
:103670000E94BD18882321F060E086E00E945F155B
:103680000E949D1A882331F00E94771A009729F42E
:103690000E94F6188FEF9FEF08950E94CB0E8111C4
:1036A00005C00E94F6188EEF9FEF08956091A60561
:1036B0008091A505462F90E00E94E919811103C071
:1036C0008DEF9FEF089581E090E00895182F86E038
:1036D00090E00E94A01188E199E20FB6F894A895B5
:1036E000809360000FBE90936000111108C00E948B
:1036F0008F0D60E07BE480E090E00E94960B222436
:103700002394312CB0EF4B2E55245A94652C752CF4
:1037100086E596E00E94EF0C892B09F466C10E94B1
:103720007E0E813509F488C108F043C0813409F464
:1037300002C158F48033D1F1813309F4E8C08032FA
:1037400009F0D0C285E190E02AC2853409F42EC187
:10375000803509F430C1823409F0C4C284E190E0BC
:103760000E94AF0E8091BB05282F30E0322F222718
:103770008091BC05820F932F911D8032910509F035
:10378000F1C0409242055092430560924405709208
:1037900045058091BD0590E0982F88272091BE05B2
:1037A000820F911D90934105809340050E94A00EC9
:1037B0001CC1813609F475C100F5863509F44EC186
:1037C000803609F462C1853509F08CC280913E05CE
:1037D00090913F05892B09F0A8950E947E0EC82F75
:1037E0000E947E0E90E0982F8827C80FD92FD11DF8
:1037F000D0933D05C0933C05D9CF843709F4D2C19D
:10380000853709F43CC2843609F06CC280913E05CC
:1038100090913F05892B09F0A8950E947E0EC82F34
:10382000D0E0DC2FCC270E947E0EC80FD11D0E9455
:103830007E0E863409F045C1CE010E94AF0E0E9473
:103840007E0E803209F07ECF84E190E00E946A0D06
:10385000E0904205F090430580913C0590913D0534
:10386000E822F9225FEAC52E55E0D52EC6018F5A0F
:1038700095408C179D0708F01CC1A70170E060E01F
:1038800080903C0590903D05B12CA12C8091420583
:1038900090914305A0914405B09145058821992157
:1038A000AA21BB21481759076A077B0781F001E06D
:1038B00020E06F2D8CE40E94B319E0904205F09057
:1038C000430580913C0590913D05E822F922409105
:1038D0003C0560913D0501E0D6012C9180E40E94F9
:1038E000B31940913C0560913D05F601218188E4C2
:1038F0000E94B31980913C0590913D0501969093EB
:103900003D0580933C05F2E0CF0ED11CAFCF0E9465
:103910007E0E803209F016CF84E190E00E946A0D9D
:1039200047E050E066E471E086E596E00E94910C85
:1039300080E190E034C10E947E0E813879F020F45D
:10394000803841F080E007C0823851F08339D1F7E8
:1039500083E501C082E00E94890E47C081E0FBCF71
:1039600082E1F9CF8034910569F480EE9FEFAFEFEB
:10397000BFEF8093420590934305A0934405B09315
:10398000450507CF8038910529F480EC9FEFAFEF14
:10399000BFEFEFCF8115914029F480E89FEFAFEFA3
:1039A000BFEFE7CF8FEF9FEFDC01E3CF85E090E043
:1039B0000E94AF0EFBCEA89580913E0590913F05E9
:1039C000892B41F40E949D1A882379F130923F059A
:1039D00020923E0580913E0590913F05892B09F08C
:1039E000E5CE82E090E00E94A01180915405909174
:1039F0005505069709F48CCE111108C00E948F0D51
:103A000060E072EC81E090E00E94960B0E94F61854
:103A10000FB6F894A895809160008861809360004B
:103A2000109260000FBE0E94BA120E94381B0197CC
:103A300069F20E94F618CECF80913E0590913F0525
:103A4000892B09F0A8950E94F61810923F05109254
:103A50003E0590E080E00E94A011A8CE80913E0536
:103A600090913F05892B09F0A89584E090E00E9491
:103A7000AF0E01E02091B2054091B1056091B00513
:103A80008091AF050E94B31966CF80913E05909159
:103A90003F05892B09F0A8950E947E0E0E947E0E9C
:103AA00085CE80913E0590913F05892BB9F3A8956D
:103AB000F5CF01E020E04E2D6F2D8CE40E94B3196C
:103AC00037CF853409F069C0809140059091410558
:103AD0008C179D0708F452C0E0903C05F0903D051E
:103AE000EE0CFF1C6E01CE0121E2C216D10440F1A2
:103AF0000E94AF0E3FEA832E35E0932E5701D4018A
:103B00002D914D0101E04A2D6B2D80EC0E94B319DF
:103B1000BFE7E2E3F2E0B150E040F040E1F700C07F
:103B200000002FEFA21AB20A8FEC881685E09806E3
:103B300031F790E2E90EF11CA0E2CA1AD108D3CF06
:103B40000E94AF0ECFEAD5E0CE018F5A95408C157A
:103B50009D0508F5299101E04E2D6F2D80EC0E9406
:103B6000B319BFE7E2E3F2E0B150E040F040E1F723
:103B700000C000002FEFE21AF20AE6CFC1E10E9476
:103B80007E0E803209F0DECD84E190E00E946A0D65
:103B90008C2F90E004C0C0E1F2CF81E190E00E9460
:103BA0006A0D23CF80913E0590913F05892B09F046
:103BB000A8950E947E0EC82F0E947E0EE82E0E94BD
:103BC0007E0ED82F0E947E0E803209F0BBCD8C2F46
:103BD00090E0982F8827E80EF92EF11C84E190E000
:103BE0000E946A0DD63461F5D0E0C0E0CE15DF0545
:103BF00008F043C040913C0560913D0501E020E0A4
:103C000080E20E94B319682F86E596E00E941D0DA0
:103C100040913C0560913D0520E088E20E94B31987
:103C2000682F86E596E00E941D0D80913C059091DD
:103C30003D05019690933D0580933C052296D6CF95
:103C400081E1D53409F0A5CFC0913C05D0913D0567
:103C5000CC0FDD1FEC0EFD1EEC16FD0671F001E031
:103C60002FEF4C2F6D2F80EA0E94B319682F86E545
:103C700096E00E941D0D2196EFCF80E18ACF8091C2
:103C80003E0590913F05892B09F0A8950E947E0E74
:103C9000803209F057CD84E190E00E946A0D01E086
:103CA00020E040E060E080E30E94B319682F86E5E1
:103CB00096E00E941D0D20E041E060E080E30E945C
:103CC000B319682F86E596E00E941D0D20E042E0C2
:103CD00060E080E30E94B319682F86E596E00E94B9
:103CE0001D0D26CE0E947E0E803209F02BCD82E182
:103CF00090E055CF0F931F93CF93DF93CDB7DEB7EF
:103D000029970FB6F894DEBF0FBECDBF92ED9A8310
:103D100083E28D839E8395E99F8398EE98878987B8
:103D200080912A05847689838FEB8B8387ED8C8342
:103D300080919D0590919E05892B89F000E117E205
:103D40000E94821780FF16C00150110929F085E3F7
:103D50008A95F1F70000F4CF8DE70E948915299626
:103D60000FB6F894DEBF0FBECDBFDF91CF911F918C
:103D70000F91089580919D0590919E050E941314C6
:103D800061E18DE10E946B1440E069E0CE01019693
:103D90000E94D513E4CF082E000C990B0E945B3BC8
:103DA000982F80ED890F8A3040F08FEB890F863095
:103DB00018F489EC890F08958FEF0895FF920F93FF
:103DC0001F93CF93DF93EB01188219821A821B8213
:103DD0008C01F12CF80181918F010E94CB1E282FBC
:103DE0008F3FC1F0F8E0FF16A9F088819981AA8180
:103DF000BB8134E0880F991FAA1FBB1F3A95D1F7EA
:103E0000820F911DA11DB11D88839983AA83BB8355
:103E1000F394E0CF8F2DDF91CF911F910F91FF9001
:103E200008952F923F924F925F926F927F928F925E
:103E30009F92AF92BF92CF92DF92EF92FF920F9339
:103E40001F93CF93DF93CDB7DEB72D970FB6F894BE
:103E5000DEBF0FBECDBF8C018091AC059091AD054A
:103E6000919581959109802391238017910721F0E5
:103E70008DE60E94E911ACC00E947A1E80912C054B
:103E800082FBDD24D0F882FF2BC0C8010E94B1164E
:103E9000E090AC05F090AD05A70161E972E081E921
:103EA00093E00E94633B892B09F492C040E0242FE9
:103EB00030E02E153F0508F06DC0F901EF56FD4FBB
:103EC000808190E0809590952F563C4FF90120819C
:103ED00030E082239323892B09F05DC04F5FE7CF49
:103EE0001092900282ED8A8393E29D838E8385E90E
:103EF0008F8388EE888780912A05847689838FEB6B
:103F00008B8387ED8C83E12EE4E1FE2E0E94890FE6
:103F1000602F8EE10E946B146E2D8FE10E946B1456
:103F200063E08DE10E946B1480919D0590919E0548
:103F3000009711F00E94131440E068E0CE01019652
:103F40000E94D51361E083E30E945F150E942D1546
:103F5000811125C08FEF98E10197F1F700C00000B3
:103F600080918A0290918B02A0918C02B0918D0277
:103F70000196A11DB11D80938A0290938B02A0939C
:103F80008C02B0938D02FA94F110C0CF8EE60E949D
:103F9000891505C0D12C10929002D110A3CF0E9498
:103FA0007A1EE090AC05F090AD05A7016FEF70E0D0
:103FB00081E992E00E94793BA70161E972E081E921
:103FC00093E00E94633B892BE1F481E080939002AF
:103FD0002D960FB6F894DEBF0FBECDBFDF91CF9107
:103FE0001F910F91FF90EF90DF90CF90BF90AF9017
:103FF0009F908F907F906F905F904F903F902F9009
:104000000895712C22EDF22E33E2E32E45E9242EA1
:1040100058EE352E6FEB562E77ED672E80919C056E
:10402000882309F466C083E090E0A72CB12C8A15A0
:104030009B050CF4F4C020919A0530919B05A29E3B
:10404000C001A39E900DB29E900D1124FC01EF566D
:10405000FC4F4F016801C80ED91EFA82ED82FE8224
:104060002F823886E986FA86F6E9FB8722E32C87D9
:10407000ED8680912A058476482E89835B826C8246
:104080000E94890F6C2D8EE10E946B146D2D8FE1C3
:104090000E946B1461E08DE10E946B14D12C8D2D78
:1040A00090E020919A0530919B058217930720F5A7
:1040B000880D991DFC01608180E00E946B14E1E095
:1040C000ED0DE80DF92DF11DD394D394608181E0BD
:1040D0000E946B1480919D0590919E05009711F0B0
:1040E0000E94131440E06DE0CE0101960E94D513AA
:1040F000D6CF90E080E099CFA29E6001A39ED00C25
:10410000B29ED00C1124C00ED11EFA82ED82FE8226
:104110002F82388649825B826C82809186029091E0
:104120008702A0918802B09189020196A11DB11D5C
:104130008093860290938702A0938802B0938902AD
:104140008D2C94E1992E0E94890F6C2D8EE10E9496
:104150006B14682D8FE10E946B1465E08DE10E9465
:104160006B1480919D0590919E05009711F00E941F
:10417000131440E068E0CE0101960E94D51361E07F
:1041800083E30E945F150E942D1520919D053091BB
:104190009E05232B09F43FC0811120C08FE99FE0C9
:1041A0000197F1F700C0000080918A0290918B0284
:1041B000A0918C02B0918D020196A11DB11D80933A
:1041C0008A0290938B02A0938C02B0938D029A94F2
:1041D0009110B9CF80E70E94891519C0EFE8F1E08E
:1041E0003197F1F700C0000088EEA82E83E0B82ECA
:1041F0000E9482178F7149F0F1E0AF1AB10829F0DF
:1042000025E32A95F1F70000F3CFAB2839F20E949D
:104210007A1E739403CF882309F4C0CFF8CF80911E
:104220002C0587FF14C010929002C8010E94B1169D
:104230004091AC055091AD0561E972E081E993E0F0
:104240000E94633B892B09F4C3CE81E712CE4091D3
:10425000AC055091AD0561E973E081E992E00E94FF
:10426000703B81E08093900210938F0200938E0246
:10427000AFCE80919304811106C0809191049091FA
:1042800092040E94111F81E08093930480912C0579
:10429000877F80932C050895CF93DF93FC010190D5
:1042A0000020E9F73197E81BF90BE13AF10598F4A2
:1042B000F0938502E0938402C0918402D09185023C
:1042C000AE01BC018FEA95E00E94703BCE01DF9108
:1042D000CF910C94B70F20EA30E030938502209301
:1042E0008402EACF2F923F924F925F926F927F9219
:1042F0008F929F92AF92BF92CF92DF92EF92FF92F6
:104300000F931F93CF93DF93CDB7DEB7C554D10979
:104310000FB6F894DEBF0FBECDBF909193049111FC
:104320001CC089E7CB5BDF4F0FB6F894DEBF0FBE32
:10433000CDBFDF91CF911F910F91FF90EF90DF9054
:10434000CF90BF90AF909F908F907F906F905F9035
:104350004F903F902F900C94E911F0907C02909137
:104360002B059F1518F4813009F0A0C1E0907B0265
:10437000E11008C020910001309101012F3F3F4F13
:1043800009F494C124968FAF24970E9401118111E2
:104390008DC150912C0550FBBB24B0F82091000139
:1043A00030910101609150057091510510E000E0DD
:1043B00090E080E045E02496AFAC2497ADEFAA0EE4
:1043C000489FF001499FF00D1124E552FE4FE08116
:1043D000E0FF3EC0B11003C0B1E0BA1578F0489FCD
:1043E000F001499FF00D1124E552FE4FA081A3FF7B
:1043F00005C0A77FAB7FA0832FEF3FEF489FF00161
:10440000499FF00D1124E552FE4FA081A2FBBB276E
:10441000B0F9A1FF64C024965FAD24975130B1F08C
:10442000B11116C0A3FD14C0D801AA0FBB1FCC2424
:10443000C394D12CCC0EDD1EAC0DBD1D0180F281CC
:10444000E02DED93FC930F5F1F4F02C0B111ECCF35
:1044500001968032910509F0B3CFE0927B02309350
:104460000101209300012496BFAD2497B13081F45F
:104470002F3F3F4F69F08FEF9FEF909301018093A3
:1044800000019093820280938102FA94F0927C0260
:10449000CE0101961C01F801EE0FFF1FE20DF31D86
:1044A0008FEF9FEF9183808381E090E008171907D9
:1044B0000CF444C0FC01EE0FFF1FE20DF31D32911E
:1044C0002291428153814217530738F4518340832C
:1044D000338322832E163F0691F70196E7CFBB2345
:1044E00019F124965FAD2497543039F40180F2819C
:1044F000E02D6E177F0709F4ABCFF801EE0FFF1F19
:10450000A1E0B0E0AC0FBD1FEA0FFB1F489FD00138
:10451000499FB00D1124A552BE4F11960D90BC912C
:10452000A02DB183A0838FCFAE7FA083A3FF04C053
:10453000A77FA0832FEF3FEFEA948ACFF12CE12CE5
:10454000B12CA12C8091970590919805E816F90659
:1045500008F0ACC0A016B1060CF0A8C0F501EE0F33
:10456000FF1FE20DF31D20813181220F331F2E1515
:104570003F0508F494C08091AC059091AD058E0D77
:104580009F1D2817390708F08AC04F012501219186
:104590003191220F331F2817390720F4AFEF4A1A41
:1045A0005A0AF5CFC7010E94B116C090AC05D09051
:1045B000AD05A60161E972E081E993E00E94703BDC
:1045C000A414B5040CF067C0BFEFAB1ABB0AF4012A
:1045D000819191914F010E9410113C0197FF02C0FF
:1045E00086E7A0CE25E0289FF001299FF00D112439
:1045F000E552FE4F21813281220F331FC901B601DE
:104600000E94CA3A26969FAF8EAF2697C90101969F
:10461000B6010E94CA3A2081BC016F567C4F269693
:104620008EAD9FAD26978F569C4F21FF19C02496C3
:104630005FAD24975130A1F0DB012C9130E0322F97
:104640002227DC014C91240F311D348323832081E8
:1046500024602083E8E9EC93E5E9DB01EC93B0CF3B
:1046600025E0269DF001279DF00D1124E552FE4F17
:1046700033812481DC013C93DB012C9380818B7F8F
:10468000808381FD9DCF8E7F808380917B028150CE
:1046900080937B0295CFC7010E94111F5201809128
:1046A000AC059091AD05E80EF91E4CCFCB5BDF4F0A
:1046B0000FB6F894DEBF0FBECDBFDF91CF911F9133
:1046C0000F91FF90EF90DF90CF90BF90AF909F90B1
:1046D0008F907F906F905F904F903F902F900895B4
:1046E0002F923F924F925F926F927F928F929F9202
:1046F000AF92BF92CF92DF92EF92FF920F931F93F0
:10470000CF93DF93CDB7DEB7AF970FB6F894DEBF88
:104710000FBECDBF8C01F62E0E940111882329F017
:104720008EE491E00E944C211FC0BE01645D7F4F6A
:10473000C8010E94DE1E080F111DBE01685D7F4F7B
:10474000C80101960E94DE1E48A559A56AA57BA551
:10475000473951056105710500F182E591E00E943C
:104760004C2186E60E94E911AF960FB6F894DEBFA1
:104770000FBECDBFDF91CF911F910F91FF90EF90B2
:10478000DF90CF90BF90AF909F908F907F906F9071
:104790005F904F903F902F900895E82FF0E0329671
:1047A000E00FF11FF11024C08F0174E9E72E74E0CF
:1047B000F72E9A012C563B4F6901EC14FD0409F4C5
:1047C00041C0D8018C910E94CB1EB82EB29460EFEC
:1047D000B622F701B1927F01D80111968C910E9407
:1047E000CB1EF70131978B2980830E5F1F4FE5CFDA
:1047F00090E080E0A4E9B4E084179507DCF4208120
:1048000030E02D3789F421812A3061F048F42350BB
:10481000223040F082E591E00E944C2188E6A2CF50
:104820002D35C1F7319630E22081232B2D9301964F
:104830003196E2CF092E000CAA0BBB0B88A799A7D3
:10484000AAA7BBA78CA59DA5AEA5BFA51C012D0140
:1048500044242CA63DA64EA65FA688279927BB27F1
:104860000097E0E8AE07B10571F10097F1E8AF07F6
:10487000B10509F453C1892B8A2B8B2B09F003C294
:1048800080919304882319F081E00E9472214CA545
:104890005DA56EA57FA588A599A5AAA5BBA5840F32
:1048A000951FA61FB71F2091970530919805A90164
:1048B00070E060E0481759076A077B0708F0ACC052
:1048C0008AE591E02FCF68A479A48AA49BA4B201C1
:1048D000A101460D571D681D791D8091910590918C
:1048E00092052091930530919405820F931FB0E0BB
:1048F000A0E084179507A607B70718F486E591E0AE
:1049000011CF530171012101460C571CC090A30522
:10491000D090A40510E000E02FEFE216F104B9F00A
:10492000B0F004E914E0C701845994401C01C101AE
:10493000800F911F9801245934402A153B0530F40B
:10494000D8016D918D010E942C14F1CF8301F801E3
:10495000EC56FB4FC701800F911F8032910560F428
:104960000A151B0548F42191805B9A4FDC011796CC
:104970002C930F5F1F4FEECFBFEFCB1ADB0A460120
:10498000F6013197E491E111F7CFF701E459F440D2
:104990001F01F401C490C11017C098012C563B4F61
:1049A00069010A151B0508F0A8C0F60161916F01A5
:1049B000C701800F911F0E942C140F5F1F4FF1CF72
:1049C000FFEF8F1A9F0AE5CFD12CC414D50428F726
:1049D000C701800F911F84159505F8F6C816D906F2
:1049E00078F3C8018C569B4F3C01C701800F911F83
:1049F0000F5F1F4F9101260D371D2C153D0500F748
:104A00009301245934402A153B05D0F6D3016D910A
:104A10003D010E942C14E9CF84E090E00E94A01197
:104A2000809177058F7E8093770580912C0583FD9B
:104A300064C0A8A4B9A4A114B10409F461C08CA5F0
:104A40009DA5AEA5BFA554E9E52E54E0F52E9C0129
:104A50002459344069019924939486010E0D1F1D39
:104A600080919104909192040817190758F02091B1
:104A7000AC053091AD05280F391F215031092017A1
:104A8000310740F420919304211104C00E94111FAA
:104A900090929304809193048823D9F08091AC057F
:104AA0009091AD05919581959109802391239093E3
:104AB0009204809391040E94B1164091AC055091EC
:104AC000AD0561E972E081E993E00E94703B1092CC
:104AD0009304D7018D917D0120919104309192042E
:104AE000021B130BF801EF56FC4F8083CD01845954
:104AF00094408A159B0508F4B0CF8EE591E012CE64
:104B000080919304811106C0809191049091920448
:104B10000E94111F81E080939304EFCF48A559A50F
:104B20006AA57BA592018101040F151F261F371F5F
:104B30008091950590919605B0E0A0E080179107CF
:104B4000A207B30708F4DACE5A01610184E9E82E1E
:104B500084E0F82E10E000E090E2792E22E0622E50
:104B600032ED932E43E2842E0A151B0530F6F70131
:104B700021917F01F0EDFF8B3CE1398F81ED8A8F30
:104B80007C8E92EC9D8FA5E0AE8F7F8EB4E0B8A3B3
:104B900069A280912A0586768E8B8091AE05888FDA
:104BA0008B8F822D800F8AA3C601800F911F9BA33C
:104BB0009CA28FA29091A005892F869586958695B7
:104BC0008670896B8DA3906F9EA399828C829D8243
:104BD00088869A868D869E86898A9A8A8D8A809111
:104BE000AB05982F9695969596959670996B9A83A6
:104BF0008F7080528B8380919905982F969596950A
:104C000096959670916B9E838F7080528F832987C3
:104C10008091AA05982F9695969596959670996B82
:104C20009B878F7080528C8780919F05982F9695D7
:104C3000969596959670996B9F878F7020EC280FAC
:104C4000288B9B8B80538C8B40E06EE0CE01469688
:104C50000E94D5138091A005882331F040E064E0E4
:104C6000CE0184960E94D51340E065E1CE01019605
:104C70000E94D513EFE1FEE43197F1F700C0000088
:104C80000F5F1F4F71CF86E591E00E944C2187E6B0
:104C900069CD83E090E00E94A01120917B0290E01A
:104CA00080E045E0489FF001499FF00D1124E55256
:104CB000FE4F30813D7F308330FD2F5F0196803283
:104CC000910581F720937B0281E00E9472210E946E
:104CD000FE170E949A0F8091770588608093770570
:104CE000809199058F31A9F461E081E00E942D1730
:104CF00081110FC087E28093990585EC9CE0909329
:104D0000A2058093A10582EB9CE09093A40580937B
:104D1000A3050895CF92DF92EF92FF921F93CF9356
:104D2000DF93182F0E94341820917D0230917E026B
:104D30002115310571F1809150059091510582172F
:104D4000930738F020917F023091800282179307F9
:104D500000F110927E0210927D028091810290916A
:104D6000820220910001309101018217930789F49A
:104D7000019679F08FEF9FEF9093820280938102EA
:104D8000909301018093000180917C028150809377
:104D90007C02143089F0163009F4ADC0113099F45A
:104DA0004FEF5FEFBA018FE091E10E94FB1090E0BE
:104DB00080E00E94A01107C04FEF5FEFBA018BEFB8
:104DC00090E10E94FB10C0905005D0905105F12C4D
:104DD000E12CCC0CDD1CEE1CFF1C46E250E067E928
:104DE00070E18FEA95E00E94AE3A86E290E09093FF
:104DF000850280938402812F82958F700E94C50E58
:104E00008093B005812F8F700E94C50E8093B105ED
:104E1000C09156058C2F82958F700E94C50E80938D
:104E2000B5058C2F8F700E94C50E8093B605C0917A
:104E30005205D0915305CE0124E0969587952A9589
:104E4000E1F78F700E94C50E8093BB058C2F8F7089
:104E50000E94C50E8093BC058D2F82958F700E9495
:104E6000C50E8093BD058D2F8F700E94C50E809357
:104E7000BE05D701C60134E0B695A79597958795ED
:104E80003A95D1F78F700E94C50E8093C3058C2D83
:104E90008F700E94C50E8093C405D701C6014CE0F7
:104EA000B695A795979587954A95D1F78F700E94EB
:104EB000C50E8093C5058D2D8F700E94C50E809301
:104EC000C605C0E3C093C7058E2D0E94C50E809312
:104ED000C805C093C905C093CA0586E290E00E9448
:104EE000B70F10938302DF91CF911F91FF90EF9046
:104EF000DF90CF90089580914605882309F463CF11
:104F0000482F50E070E060E0843638F481EE90E1A4
:104F10000E94FB1082E090E04CCF8EEB90E1F8CF46
:104F2000EF92FF920F931F93CF93DF9300918E0523
:104F300010918F050115110541F481E0DF91CF91AA
:104F40001F910F91FF90EF90089580917E05882327
:104F5000A1F365EC7CE08EE795E00E94B73A892BDF
:104F600021F1CEE7D5E009900020E9F7CF57D540F1
:104F7000CE0183589A4F7C01FC018081082E000CE1
:104F8000990B0E94533B81369105B1F5C458DA4F15
:104F9000C8810C2E000CDD0BCE010E94533B8037E4
:104FA000910569F1E0972A9750F1D0E0C0E0FE0149
:104FB000E15CFE4E659174916115710591F08EE78B
:104FC00095E00E94B73A9E012A5E3F4F892BD1F4AB
:104FD000FE01E35DFE4E659174910617170709F413
:104FE000ACCF0F30F3E91F0779F481E06A307349E1
:104FF00009F4A4CF80E0A2CF86379105B1F6F7017E
:105000001082D3CFE901D3CF0B30E4E91E0729F496
:1050100081E06630744971F791CF0F30154951F72F
:105020006431754939F789CFEF92FF920F931F933F
:10503000CF93DF93C82F2FEF81EE94E02150804073
:105040009040E1F700C0000010928F0510928E058D
:1050500088E00E94FE0B892B29F489E090E00E94F1
:105060000012D8C08C2F0E94E2188823A9F00E9459
:105070009027182F8111C9C08AE090E00E94001289
:10508000812FDF91CF911F910F91FF90EF900895A5
:105090000E94492611E0F4CFF0904605F110BAC005
:1050A000C111F8CF0E949D1A882309F4BFC00E9445
:1050B000771ACFEFDFEF009709F43FC00E94CB0EC5
:1050C000CDEFDFEF8823C9F10E949027C6EFDFEF15
:1050D000882399F10E94DA19882369F180912D05BE
:1050E000CBEFDFEF82FD29C001E020E040E060E887
:1050F0008CEA0E94B3192FEF89EF90E02150804095
:105100009040E1F700C0000060E088E00E94550C8C
:105110008FE99FE00197F1F700C0000061E088E0AF
:105120000E94550C9FEF23ED80E39150204080407A
:10513000E1F700C00000D0E0C0E00E94F6189FEF49
:1051400023EC89E0915020408040E1F700C000004E
:105150002097D9F40E949D1A0E94DA19182F811104
:1051600060C080912D0580FD15C06091A805662363
:1051700089F08091A705462F90E00E94E9198111DE
:1051800009C00E94F618CAEFDFEF882799278C1B09
:105190009D0B65CF8091A505813009F1B8F0823073
:1051A00021F16091A605F62241F180912D0581FD46
:1051B00033C08091A50540E090E00E94E91981117B
:1051C0001CC00E94F618C5EFDFEFDFCF01E020E042
:1051D00040E060E080E50E94B319F82EE2CF01E0E4
:1051E00020E040E068E088E5F6CF01E020E040E024
:1051F00068E080E50E94B319D4CF0E94F618809130
:105200005405909155050397A1F40E94DA1788235D
:1052100009F43ECF10E034CF0E94F618C4EFDFEF60
:10522000B4CF0E94F618CCEFDFEFAFCFCFEFDFEFB8
:10523000ACCF81E090E00E94A01162E083E00E9488
:10524000550C83E00E94FE0B892B09F049C088EEC3
:10525000E82E83E0F82E2196C13797E1D90709F4AB
:105260006BC08FE39CE90197F1F700C00000CE010D
:10527000B7010E94DE3A019739F44FEF5FEFBA01B0
:1052800083E09DE00E94FB1088E00E94FE0B892BCA
:1052900011F79FEF26E781E0915020408040E1F731
:1052A00000C000004FEF5FEFBA0181ED9CE00E946B
:1052B000FB1088E00E94FE0B892B69F688E00E94B3
:1052C000FE0B892BB1F52196CE01019780379741CE
:1052D00080F58FE39CE90197F1F700C00000EECF65
:1052E00085E00E94FE0B019709F4B1CF60E082E0F7
:1052F0000E94550C9FEF29E688E1915020408040A4
:10530000E1F700C000000E94760E9FEF21EE84E0DE
:10531000915020408040E1F700C0000080E00E94F2
:10532000E218882309F493CF83E090E00E94A01153
:105330006CCFC037D7417CF090E080E00E94A01194
:1053400086E596E00E94EF0C892BC1F086E596E099
:105350000E94CD0CF5CF2FEF85EA9EE021508040D2
:105360009040E1F700C0000080E00E94E218811147
:10537000DBCF82E090E00E940012E2CF0E949A0F01
:105380007FCE1F920F920FB60F9211242F933F934F
:105390008F939F93AF93BF9380914C0590914D0550
:1053A000A0914E05B0914F0530914B0523E0230F9E
:1053B0002D3758F50196A11DB11D20934B05809303
:1053C0004C0590934D05A0934E05B0934F058091E9
:1053D000470590914805A0914905B0914A0501966D
:1053E000A11DB11D8093470590934805A0934905E1
:1053F000B0934A05BF91AF919F918F913F912F91AB
:105400000F900FBE0F901F90189526E8230F02965D
:10541000A11DB11DD2CF1F920F920FB60F92112472
:105420002F933F934F935F936F937F938F939F93AC
:10543000AF93BF93EF93FF9386E596E00E94FB0C3A
:10544000FF91EF91BF91AF919F918F917F916F915C
:105450005F914F913F912F910F900FBE0F901F9032
:1054600018951F920F920FB60F9211242F938F93BE
:105470009F93EF93FF93E0916606F091670680811A
:10548000E0916C06F0916D0682FD1BC090818091C9
:105490006F068F5F8F7320917006821741F0E09145
:1054A0006F06F0E0EA5AF94F958F80936F06FF91EF
:1054B000EF919F918F912F910F900FBE0F901F90A2
:1054C00018958081F4CF8F93809186009F9390915F
:1054D0008700EF93FF93EFB7EF93E0918400F09193
:1054E0008500E81BF90B8091C4019091C501909350
:1054F0008900809388008091C80180FDB396F09365
:105500008500E093840080938100B19AE091540675
:105510008E2FF0E0EC57FE4FEF93FF9383958F7340
:1055200090915506891719F08093540603C081E0C5
:105530008093CC0198E08827915081F08894B19BAA
:10554000FECF189908948795E091C601F091C701A4
:10555000F0938900E0938800B19AEECF3A97F093E8
:105560008900E0938800E1E0E093CB018894B19B4F
:10557000FECFE091CA01E0938100FF91EF91B59ACF
:105580001899089487958083FF91FFBFFF91EF9151
:105590009F918F91189578941F920F920FB60F924A
:1055A00011242F933F938F939F93EF93FF938091B9
:1055B000CF01811126C081E08093CF012091CD01E0
:1055C0003091CE01215031093093CE012093CD018D
:1055D000E091D201F091D30190818091D401982380
:1055E000D9F037FF0CC02091D7013091D80130930A
:1055F000CE012093CD0190818095892380831092E4
:10560000CF01FF91EF919F918F913F912F910F903B
:105610000FBE0F901F90189537FFF1CF2091D90141
:105620003091DA013093CE012093CD019081892B06
:10563000E5CF1F920F920FB60F9211242F933F9335
:105640004F935F936F937F938F939F93AF93BF938A
:10565000EF93FF938FE70E94E911FF91EF91BF91C4
:10566000AF919F918F917F916F915F914F913F91FA
:105670002F910F900FBE0F901F9018950F931F93AF
:10568000CF93C0914605C1118AC08C010E940111BF
:10569000882369F04FEF5FEFBA0189E890E10E943B
:1056A000FB10C1E08C2FCF911F910F910895809135
:1056B0002C0584FF0DC08091770584FF09C04FEF52
:1056C0005FEFBA0187E790E10E94FB10CBE0EACFE1
:1056D00098012F703E7F2F3040E9340731F0C80128
:1056E0008F7E883045E9940751F48091930590911D
:1056F0009405019720915205309153050BC02F302E
:105700003249A1F4209152053091530580919305BF
:105710009091940528173907F0F44FEF5FEFBA0125
:1057200088E690E10E94FB10CAE0BCCF8930954921
:1057300061F0C8018E709E7F8E30944931F0C801AF
:105740008827907F8115904D31F480919305909139
:1057500094050196CFCF80912B0590917C028917FB
:1057600040F089130FC0813069F4083845E9140707
:1057700049F44FEF5FEFBA018CE490E10E94FB1017
:10578000CCE090CF0839154909F08CCF4FEF5FEF8F
:10579000BA0188E290E10E94FB10C4E083CFC6E02A
:1057A00081CFCF93DF93CDB7DEB72A970FB6F894AA
:1057B000DEBF0FBECDBF22ED2A8393E29D832F83F0
:1057C0009A8790912A059476998320919905922F32
:1057D000969596959695967090559B832F702C83F1
:1057E0006E839EEB98878F7089870E94890F40E0B7
:1057F0006AE0CE0101960E94D5132A960FB6F8945E
:10580000DEBF0FBECDBFDF91CF910895CF93DF9361
:10581000CDB7DEB72A970FB6F894DEBF0FBECDBF67
:105820008091770580FF42C0609152058DE30E9410
:10583000D12B80919105909192058130914028F073
:10584000609153058EE30E94D12B609156058FE342
:105850000E94D12B1C821B8280ED8A8381ED8D8377
:1058600080E28F8392EC988795E099878A87809170
:105870002A05867689838091AE058B838E8340E0EE
:105880006AE0CE0101960E94D51340E060E287E510
:1058900095E00E94D51380915005909151050E948A
:1058A0001314809177058E7F809377052A960FB623
:1058B000F894DEBF0FBECDBFDF91CF910895EF9278
:1058C000FF920F931F93CF93DF9300D01F92CDB71A
:1058D000DEB77C01009100011091010180912A0541
:1058E00060E00F3F100721F49FEFE916F90649F138
:1058F00081760E945F158FEFE816F80609F08701A0
:1059000081ED89838091AE05810F8A830B8340E00E
:1059100063E0CE0101960E94D513809150059091CD
:1059200051050E94131461E080E30E945F150F90FF
:105930000F900F90DF91CF911F910F91FF90EF90FB
:10594000089580760E945F15E8CFEF92FF920F9343
:105950001F93CF93DF93CDB7DEB764970FB6F8945C
:10596000DEBF0FBECDBF7B01042F10E0A801440FA6
:10597000551FFE013F9626E0DF011D922A95E9F7AB
:1059800060ED6A832EE12C8331ED3D8370E27F83ED
:1059900022EC2887E5E0E9877A876D87388B2B8BA7
:1059A00020912A05267629832091AE052B832E830C
:1059B0008B879C872E87250F298B4A8B0E94890F06
:1059C00040E064E1CE0101960E94D5130E94AB1223
:1059D00061E080E20E945F15B801C7010E94A01536
:1059E0007C010E94A2120E151F0519F08CE60E9480
:1059F000891564960FB6F894DEBF0FBECDBFDF9158
:105A0000CF911F910F91FF90EF9008951F93CF9327
:105A1000DF9300D000D0CDB7DEB7AE014D5F5F4F52
:105A2000BE016F5F7F4F80915005909151050E949C
:105A3000721689819A818838954911F41A821982DF
:105A400089819A810E943E2B182F81110DC082E01E
:105A50000E9472210E94062C85E090E00E94A01115
:105A60008FEF9FEF0E945F2C812F0F900F900F9070
:105A70000F90DF91CF911F910895CF92DF92EF9217
:105A8000FF920F931F93CF93DF93CDB7DEB7299784
:105A90000FB6F894DEBF0FBECDBF00915005109138
:105AA0005105C8010E9410116C01AE01485F5F4FA3
:105AB000BE016A5F7F4FC8010E9472168E819F816E
:105AC0000E943E2BF82E811112C00E811F810838D2
:105AD00025E91207E1F483E00E9472210E94062C5E
